:020000020000FC
:040000000C9400015B
:040090000C941101BA
:100200000FEF0DBF01E20EBF0E944B010E94520191
:100210000E9471017894F3E0E0E20E941E010C94C8
:100220000B010F930091CE00009300020E947E010B
:1002300000910002009302010F9118950F93009115
:100240003F000F931F93FF93EF930591043221F02A
:100250000E945F010C942501EF91FF911F910F9176
:1002600000933F000F910895102F1F70069506957B
:10027000069506950A3020F420E3020F0C94420103
:1002800027E3020F1A3020F420E3120F0C944A01E6
:1002900027E3120F08950FEF0093010100E0009390
:1002A0000201089510E01093C50007E60093C40012
:1002B00008E10093C10006E00093C20008951F9377
:1002C0001091C00015FFFCCF0093C6001F91089548
:1002D0001F931091C00017FFFCCF0091C6001F9123
:1002E000089510E01093CD0007E60093CC0008E9D4
:1002F0000093C90006E00093CA0008951F9310916F
:10030000C80015FFFCCF0093CE001F9108951F93E6
:100310001091C80017FFFCCF0091CE001F910895E7
:08032000686D2020200A0D2465
:00000001FF
