:1000000077C0000095C0000093C0000091C00000C0
:100010008FC000008DC000008BC0000089C00000B0
:1000200087C0000085C0000083C0000081C00000C0
:100030007FC000007DC000007BC0000079C00000D0
:1000400077C0000075C0000073C0000071C00000E0
:100050006FC000006DC000006BC0000069C00000F0
:1000600067C0000065C0000063C0000061C0000000
:100070005FC000005DC000005BC0000059C0000010
:1000800057C0000055C0000053C0000051C0000020
:1000900091C000004DC000004BC0000049C00000EE
:1000A00047C0000045C0000043C0000041C0000040
:1000B0003FC000003DC000003BC0000039C0000050
:1000C00037C0000035C0000033C0000031C0000060
:1000D0002FC000002DC000002BC0000029C0000070
:1000E00027C000006364696E6F70737578585B0099
:1000F00011241FBECFEFD1E2DEBFCDBF00E00CBFA9
:1001000012E0A0E0B2E0E2EEF6E100E00BBF02C0D8
:1001100007900D92A83AB107D9F722E0A8EAB2E019
:1001200001C01D92AB3AB207E1F77CD20C946F0B81
:1001300067CFCF93C82F8A3011F48DE0FADFE0EC5F
:10014000F0E0908195FFFDCFC093C60080E090E085
:10015000CF910895CF93BC01E0ECF0E0808188233B
:10016000ECF7C091C6008C2FE4DF8C2F90E0CF918C
:100170000895CF93C82F8A3011F48DE0FADFE8ECB0
:10018000F0E0908195FFFDCFC093CE0080E090E03D
:10019000CF910895CF93E8ECF0E080818823ECF7CD
:1001A000C091CE006EE072E08C2FC3DF8C2F90E008
:1001B000CF9108951F920F920FB60F9211240BB694
:1001C0000F928F929F92AF92BF92CF92DF92EF9257
:1001D000FF922F933F934F935F936F937F938F93F0
:1001E0009F93AF93BF93EF93FF93CF93DF93CDB7DD
:1001F000DEB72597DEBFCDBF8091AA028823A1F08C
:10020000CE0101969F938F9384E292E09F938F9308
:1002100080E092E09F938F9389D40F900F900F907E
:100220000F900F900F908BC1CE0101969F938F93EB
:1002300001969F938F9301969F938F9301969F931F
:100240008F9301969F938F938CE192E09F938F936E
:1002500080E092E09F938F9369D46EE072E08AE031
:1002600090E032D48D810FB6F894DEBF0FBECDBFC3
:10027000833509F027C18A8190E0C097BC01660FE1
:10028000771F880F991F880F991F880F991F680F74
:10029000791F298130E020533109620F731F8827AD
:1002A00077FD8095982FEAD26B017C0120E030E049
:1002B00044EB52E4ACD218160CF44FC120E030E00D
:1002C00044EB52ECC701B60189D388230CF445C135
:1002D0008C81803309F050C08B818B3229F520E06E
:1002E00030E040E351E4C701B6017CD34B015C012F
:1002F00020E030E0A901C701B60174D39B01AC0135
:10030000C501B40120D220E030E74BE355E41BD215
:1003100082D26093A8027093A902709389008091A1
:10032000A802809388000FC18D3209F016C120E029
:1003300030E040E351E4C701B60154D34B015C0106
:1003400020E030E0A901C701B6014CD39B01AC010C
:10035000C501B401F7D120E030E74BE355E4F3D118
:100360005AD26093A8027093A90270938900809179
:10037000A80280938800E7C0813309F050C08B81C8
:100380008B3229F520E030E040E351E4C701B601AB
:1003900029D34B015C0120E030E0A901C701B6017F
:1003A00021D39B01AC01C501B401CDD120E030E7E0
:1003B0004BE355E4C8D12FD26093A8027093A902F1
:1003C00070938B008091A80280938A00BCC08D320C
:1003D00009F0C3C020E030E040E351E4C701B601BA
:1003E00001D34B015C0120E030E0A901C701B60157
:1003F000F9D29B01AC01C501B401A4D120E030E7E2
:100400004BE355E4A0D107D26093A8027093A902F0
:1004100070938B008091A80280938A0094C08233ED
:1004200009F09BC08B818B3229F520E030E040E35E
:1004300051E4C701B601D6D24B015C0120E030E0A7
:10044000A901C701B601CED29B01AC01C501B4011F
:100450007AD120E030E74BE355E475D1DCD16093ED
:10046000A8027093A90270938D008091A8028093D6
:100470008C0069C08D3209F070C020E030E040E3AC
:1004800051E4C701B601AED24B015C0120E030E07F
:10049000A901C701B601A6D29B01AC01C501B401F7
:1004A00051D120E030E74BE355E44DD1B4D1609316
:1004B000A8027093A90270938D008091A802809386
:1004C0008C0041C08C3409F048C08C818033D9F451
:1004D0008B818F3409F041C08A818E3449F489813F
:1004E0008E34D9F5E2E0F1E08081816080832BC019
:1004F000863499F58981863481F5E2E0F1E08081E6
:100500008E7F808320C0813341F58B818F3429F524
:100510008A818E3449F489818E34F9F4E2E0F1E085
:100520008081826080830FC08634B9F489818634EB
:10053000A1F4E2E0F1E080818D7F808304C030E1AE
:100540003A95F1F714C020E032E046E050E061E077
:1005500070E087E292E0F9D2F2CF20E032E04AE0A8
:1005600050E061E070E08EE292E0EFD2E8CF0F90D1
:100570000F900F900F900F90DF91CF91FF91EF911F
:10058000BF91AF919F918F917F916F915F914F91AB
:100590003F912F91FF90EF90DF90CF90BF90AF9061
:1005A0009F908F900F900BBE0F900FBE0F901F90DB
:1005B00018958AEA809380008AE1809381008CE913
:1005C0008093870081E0809386009BE09093890070
:1005D00087EB8093880090938B0080938A009093A0
:1005E0008D0080938C0010926F0008951092C000CF
:1005F00088E18093C10086E08093C2001092C5001C
:1006000080E18093C40008951092C80088E9809327
:10061000C90086E08093CA001092CD0080E18093EB
:10062000CC000895CF93DF9300D01F921F92CDB7D7
:10063000DEB78FEF84B980BB8093010110920A016D
:1006400090910901892F881F8827881F8093AA020B
:100650007894CCDFD9DFADDF2EE032E049E250E024
:1006600061E070E089E392E070D28091AA02882371
:1006700009F45EC02EE032E04DE050E061E070E051
:1006800083E692E062D22EE032E048E250E061E0A0
:1006900070E081E792E059D281E081BB4E0185E0B4
:1006A000880E911C5E0194E0A90EB11C6E0183E0DE
:1006B000C80ED11C7E0192E0E90EF11CCE0101961C
:1006C0003C010CE112E00F2EFEE04F2EF2E05F2E17
:1006D000F02D0F2EF0E02F2EF2E03F2EF02D9F9206
:1006E0008F92BF92AF92DF92CF92FF92EF927F9262
:1006F0006F921F930F935F924F9218D28D811F922A
:100700008F938C811F928F938B811F928F938A81FD
:100710001F928F9389811F928F931F930F933F9204
:100720002F92C3D10FB6F894DEBF0FBECDBFD7CF87
:100730002EE032E04CE050E061E070E08AE992E0C7
:1007400004D2FFCF5058BB27AA270ED00DC1FED030
:1007500030F003D120F031F49F3F11F41EF4F3C0C8
:100760000EF4E095E7FBE9C0E92F0FD180F3BA174B
:10077000620773078407950718F071F49EF527C187
:100780000EF4E0950B2EBA2FA02D0B01B9019001AC
:100790000C01CA01A0011124FF27591B99F0593FF0
:1007A00050F4503E68F11A16F040A22F232F342F38
:1007B0004427585FF3CF469537952795A795F04086
:1007C0005395C9F77EF41F16BA0B620B730B840B9B
:1007D000BAF09150A1F0FF0FBB1F661F771F881F53
:1007E000C2F70EC0BA0F621F731F841F48F48795AB
:1007F00077956795B795F7959E3F08F0B3CF93959A
:10080000880F08F09927EE0F97958795089571D076
:1008100008F481E0089504D06894B111D9C0089516
:10082000BCD088F09F5790F0B92F9927B751A0F00E
:10083000D1F0660F771F881F991F1AF0BA95C9F774
:1008400012C0B13081F0C3D0B1E00895C0C0672FAD
:10085000782F8827B85F39F0B93FCCF38695779524
:100860006795B395D9F73EF490958095709561950D
:100870007F4F8F4F9F4F0895E89409C097FB3EF438
:1008800090958095709561957F4F8F4F9F4F9923DD
:10089000A9F0F92F96E9BB279395F695879577955B
:1008A0006795B795F111F8CFFAF4BB0F11F460FF1B
:1008B0001BC06F5F7F4F8F4F9F4F16C0882311F073
:1008C00096E911C0772321F09EE8872F762F05C087
:1008D000662371F096E8862F70E060E02AF09A9522
:1008E000660F771F881FDAF7880F9695879597F917
:1008F0000895990F0008550FAA0BE0E8FEEF1616B1
:100900001706E807F907C0F012161306E407F50703
:1009100098F0621B730B840B950B39F40A2661F077
:10092000232B242B252B21F408950A2609F4A1401A
:10093000A6958FEF811D811D089597F99F6780E827
:1009400070E060E008959FEF80EC089500240A9421
:100950001616170618060906089500240A9412169A
:100960001306140605060895092E0394000C11F4CD
:10097000882352F0BB0F40F4BF2B11F460FF04C07A
:100980006F5F7F4F8F4F9F4F089557FD9058440FD3
:10099000551F59F05F3F71F04795880F97FB991FDE
:1009A00061F09F3F79F0879508951216130614069B
:1009B000551FF2CF4695F1DF08C016161706180628
:1009C000991FF1CF86957105610508940895E89403
:1009D000BB2766277727CB0197F908958ADF08F4AC
:1009E0008FEF08950BD0C0CFB1DF28F0B6DF18F03D
:1009F000952309F0A2CFA7CF1124EACFC6DFA0F339
:100A0000959FD1F3950F50E0551F629FF001729FA3
:100A1000BB27F00DB11D639FAA27F00DB11DAA1FC2
:100A2000649F6627B00DA11D661F829F2227B00D0F
:100A3000A11D621F739FB00DA11D621F839FA00D9A
:100A4000611D221F749F3327A00D611D231F849FEA
:100A5000600D211D822F762F6A2F11249F57504041
:100A60008AF0E1F088234AF0EE0FFF1FBB1F661FDC
:100A7000771F881F91505040A9F79E3F510570F095
:100A80005CCFA6CF5F3FECF3983EDCF3869577957D
:100A90006795B795F795E7959F5FC1F7FE2B880F90
:100AA000911D9695879597F90895CF93DF93CDB7CC
:100AB000DEB7AE01465F5F4F688579858E819F8185
:100AC00086D0DF91CF9108950F931F93CF93DF933B
:100AD000182F092FEB018B8181FD03C08FEF9FEF52
:100AE00020C082FF10C04E815F812C813D81421762
:100AF00053077CF4E881F9819F012F5F3F4F3983D1
:100B00002883108306C0E885F985812F1995892BE4
:100B100029F72E813F812F5F3F4F3F832E83812F07
:100B2000902FDF91CF911F910F910895CF93DF9375
:100B3000CDB7DEB7AE01465F5F4F688579858E81A0
:100B40009F81C3D3DF91CF9108958F929F92AF92EF
:100B5000BF92CF92DF92EF92FF920F931F93CF93AA
:100B6000DF936B014A017901D90113962C9121FF82
:100B70001DC0C0E0D0E0C815D905D9F08C015C01DA
:100B8000AC0CBD1CC8010A151B0571F00F5F1F4F8F
:100B9000D7011896ED91FC911997B701DC018C9162
:100BA0001995892B79F305C02196E5CF80E090E077
:100BB00001C0CE01DF91CF911F910F91FF90EF9077
:100BC000DF90CF90BF90AF909F908F9008952F921D
:100BD0003F924F925F926F927F928F929F92AF92CD
:100BE000BF92CF92DF92EF92FF920F931F93CF931A
:100BF000DF93CDB7DEB72C970FB6F894DEBF0FBEEC
:100C0000CDBF7C016B018A01FC01178216828381B2
:100C100081FFB0C1CE0101964C01F7019381F6012D
:100C200093FD859193FF81916F01882309F49EC103
:100C3000853239F493FD859193FF81916F0185325F
:100C400021F4B70190E040DFE8CF512C312C20E0B7
:100C50002032A0F48B3269F030F4803259F08332C4
:100C600069F420612CC08D3239F0803339F4216071
:100C700026C02260246023C0286021C027FD27C031
:100C800030ED380F3A3078F426FF06C0FAE05F9E68
:100C9000300D1124532E13C08AE0389E300D1124DC
:100CA000332E20620CC08E3221F426FD5FC12064F9
:100CB00006C08C3611F4206802C0883641F4F60173
:100CC00093FD859193FF81916F018111C1CF982F81
:100CD0009F7D9554933028F40C5F1F4FFFE3F983F9
:100CE0000DC0833631F0833771F0833509F057C07A
:100CF00021C0F801808189830E5F1F4F44244394F3
:100D0000512C540114C03801F2E06F0E711CF8012F
:100D1000A080B18026FF03C0652D70E002C06FEF98
:100D20007FEFC5012C8718D42C0183012C852F77E8
:100D3000222E16C03801F2E06F0E711CF801A0805F
:100D4000B18026FF03C0652D70E002C06FEF7FEF1A
:100D5000C5012C87F6D32C012C852068222E830117
:100D600023FC19C0832D90E048165906A0F4B70162
:100D700080E290E0A9DE3A94F5CFF50127FC859159
:100D800027FE81915F01B70190E09EDE31103A9419
:100D9000F1E04F1A51084114510479F7DEC084364E
:100DA00011F0893631F5F80127FF07C060817181A4
:100DB000828193810C5F1F4F08C0608171818827F9
:100DC00077FD8095982F0E5F1F4F2F76B22E97FFDD
:100DD00009C090958095709561957F4F8F4F9F4F7B
:100DE0002068B22E2AE030E0A40118D4A82EA8185A
:100DF00043C0853729F42F7EB22E2AE030E025C08B
:100E0000F22FF97FBF2E8F36C1F018F4883579F0B4
:100E1000ADC0803719F0883721F0A8C02F2F20618E
:100E2000B22EB4FE0DC08B2D8460B82E09C024FFF5
:100E30000AC09F2F9660B92E06C028E030E005C09A
:100E400020E130E002C020E132E0F801B7FE07C047
:100E500060817181828193810C5F1F4F06C0608128
:100E6000718180E090E00E5F1F4FA401D7D3A82EC0
:100E7000A818FB2DFF77BF2EB6FE0BC02B2D2E7FA3
:100E8000A51450F4B4FE0AC0B2FC08C02B2D2E7E6F
:100E900005C07A2C2B2D03C07A2C01C0752C24FFA1
:100EA0000DC0FE01EA0DF11D8081803311F4297E11
:100EB00009C022FF06C07394739404C0822F867801
:100EC00009F0739423FD12C020FF06C05A2C73143E
:100ED00018F4530C5718732C731460F4B70180E2A4
:100EE00090E02C87F1DD73942C85F6CF731410F409
:100EF000371801C0312C24FF11C0B70180E390E006
:100F00002C87E2DD2C8522FF16C021FF03C088E577
:100F100090E002C088E790E0B7010CC0822F86788D
:100F200051F021FD02C080E201C08BE227FD8DE27D
:100F3000B70190E0C9DDA51430F4B70180E390E07B
:100F4000C3DD5A94F8CFAA94F401EA0DF11D808113
:100F5000B70190E0B9DDA110F6CF332009F45DCEE2
:100F6000B70180E290E0B0DD3A94F7CFF7018681D7
:100F7000978102C08FEF9FEF2C960FB6F894DEBFDB
:100F80000FBECDBFDF91CF911F910F91FF90EF90DA
:100F9000DF90CF90BF90AF909F908F907F906F9099
:100FA0005F904F903F902F90089520FD09C0FC0165
:100FB00023FD05C022FF02C07383628351834083F7
:100FC000089544FD10C046FD10C0DB01FC01AA0FCE
:100FD000BB1FEE1FFF1F1094D1F76A0F7B1F8E1FE0
:100FE0009F1F31E003C033E001C034E0660F771F7C
:100FF000881F991F3150D1F7620F711D811D911DFE
:1010000008950F931F93CF93DF938C01C801AFD244
:10101000EC0197FD06C082D2892BC1F7B801CE0141
:10102000E4D2CE01DF91CF911F910F9108958F925D
:101030009F92AF92CF92DF92EF92FF920F931F9306
:10104000CF93DF93EC01A62E4A01022F90D2AC0180
:1010500055274B32510521F04D32510549F40068B6
:10106000AA9411F480E060C0CE0181D297FDFACF3E
:10107000102F1D7F302F3073F1F48033E1F4FF2403
:10108000FA94FA0C09F43DC0CE0171D297FD39C033
:10109000382F3F7D383549F41264AA94AA9489F117
:1010A000CE0165D297FF07C02CC006FF02C01260B8
:1010B00001C01261AF2CC12CD12C760120ED280F7C
:1010C000283078F014FF03C0BE018FD217C02A3039
:1010D00040F016FFF9CF2F7D3FEE320F3630A0F7EC
:1010E0002750412FC701B6016CDF6B017C011260F4
:1010F000AA9451F0CE013BD297FFE0CF11FD04C07E
:10110000B1CFC12CD12C760117FF08C0F094E09428
:10111000D094C094C11CD11CE11CF11C212FB7013B
:10112000A601C40142DF81E0DF91CF911F910F91B1
:10113000FF90EF90DF90CF90AF909F908F900895A9
:101140007F928F929F92AF92BF92CF92DF92EF9257
:10115000FF920F931F93CF93DF93CDB7DEB7A19785
:101160000FB6F894DEBF0FBECDBF5C017A018E01D1
:101170000F5F1F4F680180E2D8011D928A95E9F741
:10118000F501738040E050E0812CB0E0912C81E0CB
:1011900090E0F90173FCA59173FEA1918F017A2F64
:1011A0009F01A11103C080E090E07BC0AE3519F42F
:1011B0004115510559F1E92DF0E0E417F5073CF42C
:1011C000AD3569F1AD3219F4BB2319F103C0B1118A
:1011D00001C08A2EE72FE695E695E69586010E0F6B
:1011E000111DF801A72FA7708C0102C0000F111F5D
:1011F000AA95E2F7D801B081BA2BB083781559F0DF
:10120000781510F47F5FE6CF7150E4CF9924939462
:1012100003C0B1E001C0B0E04F5F5F4FBACFBB2366
:1012200019F08E8180628E83911003C0992493946B
:1012300015C0F601CE018196208120952193E817F3
:10124000F907D1F7F3CFE114F10429F0D7018C931A
:10125000F70131967F016150F1F0912CC50169A32E
:1012600086D169A197FD15C0282F2695269526952C
:10127000F601E20FF11D208130E0AC0147705527E7
:1012800002C0359527954A95E2F720FDDCCFB501E0
:10129000ACD1911088CFE114F10411F0D7011C9268
:1012A000C801A1960FB6F894DEBF0FBECDBFDF9187
:1012B000CF911F910F91FF90EF90DF90CF90BF9053
:1012C000AF909F908F907F9008954F925F927F9202
:1012D0008F929F92AF92BF92CF92DF92EF92FF9246
:1012E0000F931F93CF93DF931F92CDB7DEB78C017F
:1012F0002B017A01FC0117821682A12CF801D38000
:10130000F201D3FC8591D3FE8191382F2F018823E0
:1013100009F4EEC090E0398301D13981892B19F0AD
:10132000C8016FDEEBCF353241F4F201D3FC3591C9
:10133000D3FE31912F01353259F4C801398317D1C9
:10134000398197FDD3C03817C9F2B8014ED1D0C04A
:101350003A3241F4D3FC3591D3FE31912F01BB24B5
:10136000B39401C0B12C712C20ED230F2A3088F4E6
:10137000FB2DF260BF2E672D70E080E090E040E230
:1013800020DE762EF201D3FC3591D3FE31912F0170
:10139000EBCFB1FE03C0711003C0AAC077247A94CA
:1013A000383619F03C3661F014C0F201D3FC3591A7
:1013B000D3FE31912F01383661F4FB2DF860BF2E3A
:1013C0008B2D8460B82EF201D3FC3591D3FE319180
:1013D0002F01332309F48CC0632F70E084EE90E07A
:1013E0003983A4D03981892B09F482C0B0FC07C0AD
:1013F000F701C080D180C70102967C0102C0C12CD8
:10140000D12C3E3649F4F8014681578160E070E006
:101410002B2DC601CADD72CF333699F4B1FC02C060
:1014200077247394C801A3D097FD60C0C114D10480
:1014300029F0F6018083C60101966C017A9491F738
:1014400051C03B3551F49201A601672DC80178DEE9
:101450002C01009709F046C040C0C8013983D1DD96
:10146000398197FD43C03F3651F128F4343619F1E4
:10147000393661F128C0333769F03537E1F023C0E0
:10148000C114D10429F0F6018082C60101966C01D5
:101490007A9459F0C8016BD04C0197FD06C03ED03C
:1014A000892B71F3B801C401A0D0C114D104D1F0CB
:1014B000F601108217C0FB2DF062BF2E07C08B2DE6
:1014C0008061B82E03C09B2D9064B92E2B2DA601F0
:1014D000672DC801ACDD811105C0F80183818073DF
:1014E00029F406C0B0FC0ACFA39408CFAA2019F0B3
:1014F0008A2D90E002C08FEF9FEF0F90DF91CF9188
:101500001F910F91FF90EF90DF90CF90BF90AF9021
:101510009F908F907F905F904F9008959111DCC0C5
:10152000803219F089508550D0F70895FC0105905C
:10153000061621F00020D9F7C00108953197CF0198
:101540000895FC010590615070400110D8F7809516
:1015500090958E0F9F1F0895FC016150704001907F
:101560000110D8F7809590958E0F9F1F0895CF9307
:10157000DF93EC012B8120FF33C026FF0AC02F7BB5
:101580002B838E819F8101969F838E838A8190E039
:1015900029C022FF0FC0E881F9818081992787FD4A
:1015A0009095009719F420622B831AC03196F98325
:1015B000E8830EC0EA85FB85199597FF09C02B814A
:1015C000019611F480E101C080E2822B8B8308C078
:1015D0002E813F812F5F3F4F3F832E83992702C08B
:1015E0008FEF9FEFDF91CF910895FB01238120FFC3
:1015F00012C026FD10C08F3F3FEF930761F082833A
:101600002F7D206423832681378121503109378340
:101610002683992708958FEF9FEF0895FA01AA274F
:10162000283051F1203181F1E8946F936E7F6E5F25
:101630007F4F8F4F9F4FAF4FB1E03ED0B4E03CD0D3
:10164000670F781F891F9A1FA11D680F791F8A1FB6
:10165000911DA11D6A0F711D811D911DA11D20D01D
:1016600009F468943F912AE0269F11243019305DD7
:101670003193DEF6CF010895462F4770405D4193C8
:10168000B3E00FD0C9F7F6CF462F4F70405D4A3315
:1016900018F0495D31FD4052419302D0A9F7EACFDD
:1016A000B4E0A6959795879577956795BA95C9F70C
:1016B00000976105710508959B01AC010A2E0694FF
:1016C0005795479537952795BA95C9F7620F731FB8
:1016D000841F951FA01D0895992788270895F894C1
:0216E000FFCF3A
:1016E2000000000300000000B900CA000000000072
:1016F2000003000000009900AA0000002563256392
:10170200256325632563000A2041434B0A000A2012
:10171200494E56414C49440A0034656339303030F1
:1017220061616631663337306532346662653830FE
:10173200613332303437646265623536396138324A
:101742006620002A2A2A4D41535445522A2A2A0A3F
:10175200000A44696769746520756D20636F6D6165
:101762006E646F2076616C69646F207061726120B3
:101772006F20736C6176653A0A002A2A2A534C411B
:0817820056452A2A2A0A00003C
:00000001FF
