S02B000054657374654D756C7469706C696361646F7253657269616C536F6674436F6E74726F6C2E73726563BE
S113000071C0000086C0000084C0000082C00000EF
S113001080C000007EC000007CC000007AC00000E8
S113002078C0000076C0000074C0000072C00000F8
S113003070C000006EC000006CC000006AC0000008
S113004068C0000066C0000064C0000062C0000018
S113005060C000005EC000005CC000005AC0000028
S113006058C0000056C0000054C0000052C0000038
S113007050C000004EC000004CC000004AC0000048
S113008048C0000046C0000044C0000042C0000058
S113009040C000003EC000003CC000003AC0000068
S11300A038C0000036C0000034C0000032C0000078
S11300B030C000002EC000002CC000002AC0000088
S11300C028C0000026C0000024C0000022C0000098
S11300D020C000001EC000001CC000001AC00000A8
S11300E018C0000011241FBECFEFD1E2DEBFCDBF88
S11300F000E00CBF12E0A0E0B2E0E8E4F9E000E0C8
S11301000BBF02C007900D92A03CB107D9F759D09C
S113011019C476CFCF93C82F8A3011F48DE0FADF5B
S1130120E8ECF0E0808185FFFDCFC093CE0080E055
S113013090E0CF910895E8ECF0E080818823ECF71B
S11301408091CE0090E00895A19885E08A95F1F71A
S11301500000A19A089594B381E0982794BB95E098
S11301609A95F1F7000094B3892784BB85E08A95BA
S1130170F1F70000089594B384E0982794BB95E0C8
S11301809A95F1F7000094B3892784BB089594B33A
S113019088E0982794BB95E09A95F1F7000094B312
S11301A0892784BB08951092C80088E08093C90011
S11301B086E08093CA001092CD0087E68093CC003D
S11301C008958FEF83BB9FE194BB809301018093DB
S11301D004011092070110920A01E5DF20E032E0E9
S11301E04CE150E061E070E08EE092E0BCD020E0B1
S11301F032E042E250E061E070E08BE292E0B3D0A2
S113020020E032E043E150E061E070E08EE492E00F
S1130210AAD0812C912C540183940F2EF6E02F2E1A
S113022033243394F02D0F2EF2E64F2EF2E05F2E9E
S1130230F02D0F2EF0E0CF2EF2E0DF2EF02D00E0B7
S113024010E064C0E2E0F1E00083E5E0F1E0C083A7
S11302509EDF7ADF90DF0F2EF7E06F2E712CF02DEA
S11302607ADF89DF81E0681A7108D1F795E09A9501
S1130270F1F70000F1012081E9E0F1E0808190E0F4
S1130280982F88273C01620E711C7F926F92DF9336
S1130290CF931F930F935F924F92DF92CF9254D0DC
S11302A08DB79EB70A960FB6F8949EBF0FBE8DBF4A
S11302B06E147F04E9F07F926F9280E792E09F933F
S11302C08F93C0E0D2E0DF93CF933ED0FF92EF92C2
S11302D083E892E09F938F93DF93CF9335D08DB7CC
S11302E09EB70C960FB6F8949EBF0FBE8DBFFFCF7E
S11302F02196E00EF11EC11591E0D90709F0A2CFB5
S11303000F5F1F4F0115E1E01E0729F0E12CF12CCE
S1130310C0E0D0E097CFBF92AF929F928F9287EACE
S113032092E09F938F93DF92CF920ED0FFEF8F1ABC
S11303309F0AAF0ABF0A8DB79EB708960FB6F89406
S11303409EBF0FBE8DBF7BCFCF93DF93CDB7DEB7FC
S1130350AE01465F5F4F688579858E819F8145D068
S1130360DF91CF9108958F929F92AF92BF92CF92D7
S1130370DF92EF92FF920F931F93CF93DF935B0172
S11303804A017901D90113962C9121FF1DC0C0E0C7
S1130390D0E0C815D905D9F08C016C01CA0CDB1C5E
S11303A0C8010C151D0571F00F5F1F4FD70118967A
S11303B0ED91FC911997B701DC018C911995892B6A
S11303C079F305C02196E5CF80E090E001C0CE012D
S11303D0DF91CF911F910F91FF90EF90DF90CF901D
S11303E0BF90AF909F908F9008952F923F924F921D
S11303F05F926F927F928F929F92AF92BF92CF92B1
S1130400DF92EF92FF920F931F93CF93DF93CDB7B9
S1130410DEB72B970FB6F894DEBF0FBECDBF6C01CD
S11304207B018A01FC0117821682838181FFBFC18F
S1130430CE0101963C01F6019381F70193FD85916C
S113044093FF81917F01882309F4ADC1853239F48A
S113045093FD859193FF81917F01853221F4B6014B
S113046090E0D6D1E8CF912C212C312CFFE1F3156B
S1130470D8F08B3279F038F4803279F08332A1F4F9
S1130480232D20611DC08D3261F0803369F4232D4A
S1130490216016C0832D8260382EE32DE4603E2E49
S11304A02AC0F32DF8601DC037FC2DC020ED280FA5
S11304B02A3040F08E32B9F436FC75C1232D206405
S11304C0322E19C036FE06C08AE0989E200D1124F3
S11304D0922E11C0EAE02E9E200D1124222EF32D1F
S11304E0F0623F2E08C08C3621F4832D8068382EAC
S11304F002C0883641F4F70193FD859193FF819101
S11305007F018111B3CF982F9F7D9554933028F4A8
S11305100C5F1F4F9FE399830DC0833631F08337FF
S113052071F0833509F055C020C0F80180818983BA
S11305300E5F1F4F88248394912C530112C028010D
S1130540F2E04F0E511CF801A080B18036FE03C0CA
S1130550692D70E002C06FEF7FEFC5014ED14C01F1
S11305608201F32DFF773F2E15C0280122E0420EB1
S1130570511CF801A080B18036FE03C0692D70E0E3
S113058002C06FEF7FEFC5012DD14C01F32DF06850
S11305903F2E820133FC19C0822D90E08816990603
S11305A0A0F4B60180E290E033D12A94F5CFF501AE
S11305B037FC859137FE81915F01B60190E028D127
S11305C021102A9421E0821A91088114910479F768
S11305D0E1C0843611F0893639F5F80137FE07C0D9
S11305E060817181828193810C5F1F4F08C060819B
S11305F07181072E000C880B990B0E5F1F4FF32D92
S1130600FF763F2E97FF09C0909580957095619570
S11306107F4F8F4F9F4FF0683F2E2AE030E0A301B9
S113062033D1882E861844C0853731F4232D2F7E8C
S1130630B22E2AE030E025C0932D997FB92E8F3653
S1130640C1F018F4883579F0AEC0803719F08837D6
S113065021F0A9C0E92FE061BE2EB4FE0DC0FB2D30
S1130660F460BF2E09C034FE0AC0292F2660B22EC2
S113067006C028E030E005C020E130E002C020E1FF
S113068032E0F801B7FE07C06081718182819381F5
S11306900C5F1F4F06C06081718180E090E00E5FA7
S11306A01F4FA301F1D0882E8618FB2DFF773F2E14
S11306B036FE0DC0232D2E7FA22E891458F434FE4D
S11306C00BC032FC09C0832D8E7EA82E05C0B82C29
S11306D0A32C03C0B82C01C0B92CA4FE0FC0FE018A
S11306E0E80DF11D8081803321F49A2D997EA92E85
S11306F009C0A2FE06C0B394B39404C08A2D8678C0
S113070009F0B394A3FC10C0A0FE06C0B21480F498
S1130710280C922C9B180DC0B21458F4B60180E238
S113072090E076D0B394F8CFB21418F42B1802C02A
S1130730982C212CA4FE0FC0B60180E390E068D071
S1130740A2FE16C0A1FC03C088E790E002C088E5C1
S113075090E0B6010CC08A2D867851F0A1FE02C04B
S11307608BE201C080E2A7FC8DE2B60190E050D09C
S1130770891430F4B60180E390E04AD09A94F8CF1B
S11307808A94F301E80DF11D8081B60190E040D018
S11307908110F6CF222009F44ECEB60180E290E01B
S11307A037D02A94F7CFF6018681978102C08FEF64
S11307B09FEF2B960FB6F894DEBF0FBECDBFDF912F
S11307C0CF911F910F91FF90EF90DF90CF90BF904A
S11307D0AF909F908F907F906F905F904F903F90DD
S11307E02F900895FC010590615070400110D8F7D6
S11307F0809590958E0F9F1F0895FC016150704065
S113080001900110D8F7809590958E0F9F1F089541
S11308100F931F93CF93DF93FB01238121FD03C02B
S11308208FEF9FEF2CC022FF16C046815781248191
S113083035814217530744F4A081B1819D012F5F94
S11308403F4F318320838C93268137812F5F3F4F25
S11308503783268314C08B01EC01FB010084F185EE
S1130860E02D1995892BE1F6D80116968D919C916E
S11308701797019617969C938E931697CE01DF9146
S1130880CF911F910F910895FA01AA27283051F1B1
S1130890203181F1E8946F936E7F6E5F7F4F8F4FAD
S11308A09F4FAF4FB1E03ED0B4E03CD0670F781F0C
S11308B0891F9A1FA11D680F791F8A1F911DA11DF1
S11308C06A0F711D811D911DA11D20D009F468942A
S11308D03F912AE0269F11243019305D3193DEF6D2
S11308E0CF010895462F4770405D4193B3E00FD088
S11308F0C9F7F6CF462F4F70405D4A3318F0495D73
S113090031FD4052419302D0A9F7EACFB4E0A69555
S11309109795879577956795BA95C9F70097610577
S1130920710508959B01AC010A2E069457954795CD
S113093037952795BA95C9F7620F731F841F951FC2
S10B0940A01D0895F894FFCFF7
S113094800000003000000008A009B0000005465BA
S113095873746520646F206D756C7469706C696359
S113096861646F72203878382E0A00436F6E74728F
S11309786F6C6520746F74616C6D656E746520703E
S11309886F7220736F6674776172652E0A00496E00
S1130998696369616E646F206F2074657374650A96
S11309A80A002564202A202564203D2025640A00A5
S11309B850726F6475746F206C69646F203D2025D4
S11309C8780A004552524F2C706172616E646F3A16
S11309D82070726F6475746F20636F727265746FC0
S11309E8203D2025780A004369636C6F204E6F20F0
S11309F8256C7520636F6D706C65746F2E0A00002A
S9030000FC
