:020000020000FC
:040000000C9400015B
:040044000C94110106
:100200000FEF0DBF01E20EBF0E9435010E943E01BB
:100210000E945D017894F2E0EAED0E941F010C94C7
:100220000B010F9300913F000F9300910201039582
:10023000009302010F9100933F000F9118950F93C7
:1002400000913F000F931F93FF93EF9305910432AA
:1002500021F00E944B010C942601EF91FF911F9118
:100260000F9100933F000F91089500E204B90FEF42
:100270000093010100E000930201089510E0109343
:10028000C50007E60093C40008E10093C10006E042
:100290000093C20008951F931091C00015FFFCCF7A
:1002A0000093C6001F9108951F931091C00017FF7F
:1002B000FCCF0091C6001F9108950DE300938900C3
:1002C00009E00093880000E4009380000DE00093B3
:1002D000810002E000936F00089554696D657220FB
:1002E000696E74657272727570742068656C6C6F7B
:0A02F00020776F726C64210A0D2460
:00000001FF
