:0100060000f9
:01000e0000f1
:0100160000e9
:01001e0000e1
:0100260000d9
:01002e0000d1
:0100360000c9
:01003e0000c1
:0100c6000039
:0100ce000031
:0100d6000029
:0100de000021
:0100e6000019
:0100ee000011
:0100f6000009
:0100fe000001
:0100400000bf
:0100410000be
:0100420000bd
:0100430000bc
:0100440000bb
:0100450000ba
:0100460000b9
:0100470000b8
:0100480000b7
:0100490000b6
:01004a0000b5
:01004b0000b4
:01004c0000b3
:01004d0000b2
:01004e0000b1
:01004f0000b0
:0100500000af
:0100510000ae
:0100520000ad
:0100530000ac
:0100540000ab
:0100550000aa
:0100560000a9
:0100570000a8
:0100580000a7
:0100590000a6
:01005a0000a5
:01005b0000a4
:01005c0000a3
:01005d0000a2
:01005e0000a1
:01005f0000a0
:01006000009f
:01006100009e
:01006200009d
:01006300009c
:01006400009b
:01006500009a
:010066000099
:010067000098
:010068000097
:010069000096
:01006a000095
:01006b000094
:01006c000093
:01006d000092
:01006e000091
:01006f000090
:01007000008f
:01007100008e
:01007200008d
:01007300008c
:01007400008b
:01007500008a
:010077000088
:010078000087
:010079000086
:01007a000085
:01007b000084
:01007c000083
:01007d000082
:01007e000081
:01007f000080
:01000a0000f5
:01001a0000e5
:01002a0000d5
:01003a0000c5
:0100020000fd
:0100120000ed
:0100220000dd
:0100320000cd
:0100010000fe
:0100110000ee
:0100210000de
:0100310000ce
:0100090000f6
:0100190000e6
:0100290000d6
:0100390000c6
:0100040000fb
:01000c0000f3
:0100140000eb
:01001c0000e3
:0100240000db
:01002c0000d3
:0100340000cb
:01003c0000c3
:0100030000fc
:0100130000ec
:0100230000dc
:0100330000cc
:0100050000fa
:01000d0000f2
:0100150000ea
:01001d0000e2
:0100250000da
:01002d0000d2
:0100350000ca
:01003d0000c2
:01000b0000f4
:01001b0000e4
:01002b0000d4
:01003b0000c4
:0100c500003a
:0100d500002a
:0100e500001a
:0100f500000a
:0100c100003e
:0100d100002e
:0100e100001e
:0100f100000e
:0100e300001c
:0100f9000105
:0100eb000113
:0100270001d7
:01002f0001cf
:0100370001c7
:01003f0001bf
:0100d300012b
:0100db000123
:01008000017e
:01008100017d
:01008200017c
:01008300017b
:01008400017a
:010085000179
:010086000178
:010087000177
:010088000176
:010089000175
:01008a000174
:01008b000173
:01008c000172
:01008d000171
:01008e000170
:01008f00016f
:01009000016e
:01009100016d
:01009200016c
:01009300016b
:01009400016a
:010095000169
:010096000168
:010097000167
:010098000166
:010099000165
:01009a000164
:01009b000163
:01009c000162
:01009d000161
:01009e000160
:01009f00015f
:0100a000015e
:0100a100015d
:0100a200015c
:0100a300015b
:0100a400015a
:0100a5000159
:0100a6000158
:0100a7000157
:0100a8000156
:0100a9000155
:0100aa000154
:0100ab000153
:0100ac000152
:0100ad000151
:0100ae000150
:0100af00014f
:0100b000014e
:0100b100014d
:0100b200014c
:0100b300014b
:0100b400014a
:0100b5000149
:0100b6000148
:0100b7000147
:0100b8000146
:0100b9000145
:0100ba000144
:0100bb000143
:0100bc000142
:0100bd000141
:0100be000140
:0100bf00013f
:0100c300013b
:0100c200013c
:0100ca000134
:0100d200012c
:0100da000124
:0100e200011c
:0100ea000114
:0100f200010c
:0100fa000104
:0100e9000115
:0100cd000131
:0100c400013a
:0100cc000132
:0100d400012a
:0100dc000122
:0100e400011a
:0100ec000112
:0100f400010a
:0100fc000102
:0100c9000135
:0100c000013e
:0100c8000136
:0100d000012e
:0100d8000126
:0100e000011e
:0100e8000116
:0100f000010e
:0100f8000106
:0100c7000137
:0100cf00012f
:0100d7000127
:0100df00011f
:0100e7000117
:0100ef00010f
:0100f7000107
:0100ff0001ff
:0100070001f7
:01000f0001ef
:0100170001e7
:01001f0001df
:0100000001fe
:010076000188
:0100f300010b
:0100fb000103
:0100080001f6
:0100100001ee
:0100180001e6
:0100200001de
:0100cb000232
:00000001ff
