:1000000001C1000017C1000015C1000013C10000AC
:1000100011C100000FC100000DC100000BC10000A4
:1000200009C1000007C1000005C1000003C10000B4
:1000300001C10000FFC00000FDC00000FBC00000C7
:10004000F9C00000F7C00000F5C00000F3C00000D8
:10005000F1C00000EFC00000EDC00000EBC00000E8
:10006000E9C00000E7C00000E5C00000E3C00000F8
:10007000E1C00000DFC00000DDC00000DBC0000008
:10008000D9C00000D7C00000D5C00000D3C0000018
:10009000D1C00000CFC00000CDC00000CBC0000028
:1000A000C9C00000C7C00000C5C00000C3C0000038
:1000B000C1C00000BFC00000BDC00000BBC0000048
:1000C000B9C00000B7C00000B5C00000B3C0000058
:1000D000B1C00000AFC00000ADC00000ABC0000068
:1000E000A9C0000005A84CCDB2D44EB93836A9023B
:1000F0000C50B9918688083CA6AAAA2ABE00000026
:10010000803F6E616E00696E660000407A10F35A9F
:1001100000A0724E18090010A5D4E80000E8764847
:10012000170000E40B54020000CA9A3B000000E1F3
:10013000F505000080969800000040420F00000086
:10014000A08601000000102700000000E803000066
:1001500000006400000000000A0000000000010030
:10016000000000002C76D888DC674F0823DFC1DF51
:10017000AE59E1B1B796E5E3E453C63AE651997654
:1001800096E8E6C28426EB898C9B62ED407C6FFC8E
:10019000EFBC9C9F40F2BAA56FA5F490055A2AF7D0
:1001A0005C936B6CF9676DC11BFCE0E40D47FEF5D9
:1001B00020E6B500D0ED902E030094357705008041
:1001C000841E080000204E0A000000C80C333333A0
:1001D000330F986E12831141EF8D2114893BE65540
:1001E00016CFFEE6DB18D1844B381BF77C1D901D23
:1001F000A4BBE424203284725E228100C9F124EC85
:10020000A1E53D2711241FBECFEFD1E2DEBFCDBF58
:1002100000E00CBF12E0A0E0B2E0EEE9F3E100E0A4
:100220000BBF02C007900D92AC35B107D9F7A6D02D
:100230000C94CD09E5CECF93C82F8A3011F48DE010
:10024000FADFE0ECF0E0908195FFFDCFC093C600AF
:1002500080E090E0CF910895E0ECF0E08081882389
:10026000ECF78091C60090E008954F925F926F92F4
:100270007F928F929F92AF92BF92CF92DF92EF9236
:10028000FF920F931F93CF93DF9320E032E04DE274
:1002900050E061E070E08EE092E0DFD7C12CD12C1D
:1002A00076010CE312E0C0E0D2E0C701B601DAD07B
:1002B0004B015C01D2D1762E672E582E492E2BEDA4
:1002C0003FE049E450E4C501B4015AD120E030E0F8
:1002D00044E353E45FD0B7D19F938F937F936F93A1
:1002E0004F925F926F927F92A7019601C701B6016C
:1002F0005DD69F938F937F936F93FF92EF92DF92E0
:10030000CF921F930F93DF93CF9366D78FEFC81AC7
:10031000D80AE80AF80A8DB79EB744960FB6F89443
:100320009EBF0FBE8DBF9FE1C916D104E104F10449
:1003300009F0BBCF60E072E08AE090E05CD7DF912B
:10034000CF911F910F91FF90EF90DF90CF90BF90D2
:10035000AF909F908F907F906F905F904F90089597
:100360001092C00088E18093C1008EE08093C200AB
:100370001092C50080E18093C4000895F1DF75DF1D
:100380002FEF83E294EF215080409040E1F700C0CE
:100390000000F5CF0CD0BAC0B2D040F0A9D030F0F8
:1003A00021F45F3F19F09BC05111E4C09EC0BFD043
:1003B00098F39923C9F35523B1F3951B550BBB272C
:1003C000AA2762177307840738F09F5F5F4F220FD9
:1003D000331F441FAA1FA9F333D00E2E3AF0E0E8D2
:1003E00030D091505040E695001CCAF729D0FE2F1E
:1003F00027D0660F771F881FBB1F261737074807B0
:10040000AB07B0E809F0BB0B802DBF01FF27935865
:100410005F4F2AF09E3F510568F061C0ABC05F3F5F
:10042000ECF3983EDCF3869577956795B795F7954D
:100430009F5FC9F7880F911D9695879597F9089545
:10044000E1E0660F771F881FBB1F621773078407E1
:10045000BA0720F0621B730B840BBA0BEE1F88F7F0
:10046000E0950895E89409C097FB3EF49095809537
:10047000709561957F4F8F4F9F4F9923A9F0F92F6A
:1004800096E9BB279395F695879577956795B795E8
:10049000F111F8CFFAF4BB0F11F460FF1BC06F5FCE
:1004A0007F4F8F4F9F4F16C0882311F096E911C0E0
:1004B000772321F09EE8872F762F05C0662371F001
:1004C00096E8862F70E060E02AF09A95660F771F15
:1004D000881FDAF7880F9695879597F9089597F909
:1004E0009F6780E870E060E008959FEF80EC0895DA
:1004F00000240A9416161706180609060895002403
:100500000A9412161306140605060895092E03947C
:10051000000C11F4882352F0BB0F40F4BF2B11F4F0
:1005200060FF04C06F5F7F4F8F4F9F4F089557FD4F
:100530009058440F551F59F05F3F71F04795880F51
:1005400097FB991F61F09F3F79F0879508951216E8
:1005500013061406551FF2CF4695F1DF08C0161694
:1005600017061806991FF1CF869571056105089445
:100570000895E894BB2766277727CB0197F908955C
:100580000BD0C4CFB5DF28F0BADF18F0952309F0FF
:10059000A6CFABCF1124EECFCADFA0F3959FD1F346
:1005A000950F50E0551F629FF001729FBB27F00D21
:1005B000B11D639FAA27F00DB11DAA1F649F662776
:1005C000B00DA11D661F829F2227B00DA11D621FC5
:1005D000739FB00DA11D621F839FA00D611D221F7F
:1005E000749F3327A00D611D231F849F600D211D63
:1005F000822F762F6A2F11249F5750408AF0E1F006
:1006000088234AF0EE0FFF1FBB1F661F771F881F4E
:1006100091505040A9F79E3F510570F060CFAACF8E
:100620005F3FECF3983EDCF3869577956795B79539
:10063000F795E7959F5FC1F7FE2B880F911D969563
:10064000879597F908959F935CD00F9007FCEE5F14
:100650007FC011F40EF449CF3EC071DFD0F399236F
:10066000D9F3CEF39F57550B87FF43D00024A0E664
:1006700040EA900180585695979528F4805C660F63
:10068000771F881F20F026173707480730F4621BB2
:10069000730B840B202931294A2BA69517940794B4
:1006A000202531254A2758F7660F771F881F20F02D
:1006B00026173707480730F4620B730B840B200DA5
:1006C000311D411DA09581F7B901842F9158880FE4
:1006D0009695879508959F3F31F0915020F4879526
:1006E00077956795B795880F911D9695879597F99A
:1006F000089591505040660F771F881FD2F70895D4
:10070000F4CE1DDFE8F3E894E0E0BB279F57F0F05C
:100710002AED3FE049EC06C0EE0FBB0F661F771FC6
:10072000881F28F0B23A62077307840728F0B25A8C
:10073000620B730B840BE3959A9572F7803830F453
:100740009A95BB0F661F771F881FD2F79048C5CFB9
:10075000EF93E0FF06C0A2EA2AED3FE049EC5FEB31
:1007600015D0D4DE0F90039401FC9058E4EEF0E035
:1007700060C0BEDE30F0C3DE20F031F49F3F11F4E4
:100780001EF4B3CE0EF4E095E7FBA9CEE92FCFDE41
:1007900080F3BA17620773078407950718F071F49E
:1007A0009EF5E7CE0EF4E0950B2EBA2FA02D0B018F
:1007B000B90190010C01CA01A0011124FF27591BA6
:1007C00099F0593F50F4503E68F11A16F040A22FAC
:1007D000232F342F4427585FF3CF4695379527951D
:1007E000A795F0405395C9F77EF41F16BA0B620B1C
:1007F000730B840BBAF09150A1F0FF0FBB1F661F63
:10080000771F881FC2F70EC0BA0F621F731F841FA5
:1008100048F4879577956795B795F7959E3F08F0CB
:10082000B3CF9395880F08F09927EE0F979587958A
:1008300008959F938F937F936F93FF93EF939B0103
:10084000AC019EDEEF91FF9105D02F913F914F912A
:100850005F9196CEDF93CF931F930F93FF92EF920A
:10086000DF927B018C01689405C0DA2EEF0194DEE3
:10087000FE01E894A5912591359145915591AEF3EE
:10088000EF0184DFFE019701A801DA9479F7DF9088
:10089000EF90FF900F911F91CF91DF9108952F92CC
:1008A0003F924F925F926F927F928F929F92AF9200
:1008B000BF92CF92DF92EF92FF920F931F93CF934D
:1008C000DF93CDB7DEB763970FB6F894DEBF0FBEE8
:1008D000CDBF7C011B016A01FC0117821682838156
:1008E00081FF49C3BE016F5F7F4F4B01F7019381C9
:1008F000F10193FD859193FF81911F01882309F4F4
:1009000036C3853239F493FD859193FF81911F01A0
:10091000853231F4B70190E06ED456016501E6CF1F
:1009200010E0512C20E02032A0F48B3269F030F43A
:10093000803259F0833269F420612CC08D3239F055
:10094000803339F4216026C02260246023C02860EF
:1009500021C027FD27C030ED380F3A3078F426FF4C
:1009600006C0FAE01F9F300D1124132F13C06AE058
:10097000569E300D1124532E20620CC08E3221F46D
:1009800026FDF5C2206406C08C3611F4206802C032
:10099000883641F4F10193FD859193FF81911F0108
:1009A0008111C1CF9BEB980F933018F42061805ECA
:1009B00006C09BE9980F933008F09AC12F7E26FF5E
:1009C00016E02F73722E853621F4F22FF0647F2EFD
:1009D00008C0863621F4622F6068762E02C011119D
:1009E000115077FE07C01C3348F444244394410E51
:1009F00027E00BC0183030F4212F06C027E04CE36D
:100A0000442E03C027E017E0412C560174E0A70EE6
:100A1000B11CF6016081718182819381042DA40152
:100A2000EDD26C01098100FF02C003FF06C071FC1A
:100A300007C072FC08C0612C08C03DE2632E05C0EF
:100A40002BE2622E02C090E2692E802F8C7081F121
:100A5000662011F084E001C083E0851510F0512C70
:100A60000AC0581A73FC07C0B70180E290E0C3D3F4
:100A70005A94D1F7F4CF662021F0B701862D90E08B
:100A8000BAD303FD03C006E011E002C002E011E0AA
:100A9000F72DF0717F2EF8018491882309F45EC24E
:100AA00071108052B70190E0A6D30F5F1F4FF3CFB4
:100AB00077FE0FC04C0C04FF04C08A81813309F417
:100AC0004A94141474F5F8E0F41578F588E0482E8B
:100AD0002CC076FC2AC0812F90E08C159D059CF0DF
:100AE0006CEFC6166FEFD60674F0772D7068772E10
:100AF0000AC0E2E0F0E0EC0FFD1FE10FF11D808184
:100B0000803319F411501111F4CF77FE0EC0442434
:100B10004394410E812F90E0C816D9062CF41C197D
:100B200004C04424439401C010E077FE07C01C14A5
:100B30001D043CF496012F5F3F4F05C025E030E0D7
:100B400002C021E030E0662011F02F5F3F4F1123FB
:100B500031F0412F50E04F5F5F4F240F351F452D7F
:100B600050E02417350714F4521A01C0512C872D78
:100B7000897041F4552031F0B70180E290E03BD319
:100B80005A94F8CF662021F0B701862D90E033D338
:100B900073FC08C0552031F0B70180E390E02BD3FF
:100BA0005A94F8CF77FE5DC09C2D8D2DD7FE02C0E4
:100BB00090E080E0692E782E40E050E0C601841974
:100BC00091099D878C87960126193709280D391DB3
:100BD000812F90E0EE27FF27E81BF90BFF87EE87B8
:100BE000FFEF6F167F0661F4B7018EE290E02B8B6A
:100BF0003A8B488B598BFFD2598948893A892B897E
:100C0000C614D70454F06C857D85661577052CF4E1
:100C1000F901E40FF51F818101C080E371E0671ADB
:100C200071084F5F5F4FEE85FF856E167F0664F09B
:100C3000B70190E02B8B3A8B488B598BDCD22B89F8
:100C40003A8948895989CCCF6C147D0439F49A814A
:100C5000963318F4953311F404FF81E3B70190E063
:100C600045C08A81813309F00F7EB70190E0C3D27D
:100C7000111105C074FE16C085E490E015C0B701DF
:100C80008EE290E0B8D282E066246394680EF401AC
:100C9000E80FF11D8081B70190E0ADD2115051F302
:100CA000862DF2CF85E690E0B701A5D2D7FC05C02E
:100CB000C114D10439F404FF05C0D194C194D10802
:100CC0008DE201C08BE2B70190E095D280E36AE04B
:100CD000C616D1042CF08F5FFAE0CF1AD108F7CFF7
:100CE000B70190E088D2B701C601C09684D236C160
:100CF000833631F0833779F0833509F054C020C052
:100D0000560172E0A70EB11CF6018081898301E0D3
:100D100010E0640113C05601F2E0AF0EB11CF60101
:100D2000C080D18026FF03C0612F70E002C06FEF4A
:100D30007FEFC6012B8B45D28C012B892F7714C0F6
:100D40005601F2E0AF0EB11CF601C080D18026FF43
:100D500003C0612F70E002C06FEF7FEFC6012B8BE5
:100D600025D28C012B892068722E23FD18C0852D79
:100D700090E00817190798F4B70180E290E03BD2A1
:100D80005A94F5CFF60177FC859177FE81916F013A
:100D9000B70190E030D251105A9401501109011559
:100DA000110581F7DBC0843611F0893649F556010B
:100DB00027FF09C0F4E0AF0EB11CF601608171811C
:100DC000828193810AC0F2E0AF0EB11CF60160810E
:100DD0007181882777FD8095982F022F0F7697FFD6
:100DE00008C090958095709561957F4F8F4F9F4F6C
:100DF00000682AE030E0A40172D2C82EC8183DC0B5
:100E0000022F853721F40F7E2AE030E01DC0097FD4
:100E10008F3691F018F4883559F0A9C0803719F051
:100E2000883711F0A4C0006104FF09C0046007C046
:100E300024FF08C0066006C028E030E005C020E1BD
:100E400030E002C020E132E0560107FF09C0F4E0C3
:100E5000AF0EB11CF601608171818281938108C05F
:100E6000F2E0AF0EB11CF6016081718180E090E08C
:100E7000A40135D2C82EC8180F7706FF0BC0202F4B
:100E80002E7FC11650F404FF0AC002FD08C0202FB7
:100E90002E7E05C0DC2C202F03C0DC2C01C0D12EFF
:100EA00024FF0DC0FE01EC0DF11D8081803311F493
:100EB000297E09C022FF06C0D394D39404C0822F98
:100EC000867809F0D39423FD12C020FF06C01C2DA4
:100ED000D51418F4150D1D19D52CD51460F4B701CF
:100EE00080E290E02B8B87D1D3942B89F6CFD51459
:100EF00010F45D1801C0512C24FF11C0B70180E32C
:100F000090E02B8B78D12B8922FF16C021FF03C0E4
:100F100088E590E002C088E790E0B7010CC0822F1E
:100F2000867851F021FD02C080E201C08BE227FDEE
:100F30008DE2B70190E05FD1C11630F4B70180E3D4
:100F400090E059D11150F8CFCA94F401EC0DF11D85
:100F50008081B70190E04FD1C110F6CF552009F440
:100F6000DDCCB70180E290E046D15A94F7CFF7018B
:100F70008681978102C08FEF9FEF63960FB6F8943A
:100F8000DEBF0FBECDBFDF91CF911F910F91FF90BC
:100F9000EF90DF90CF90BF90AF909F908F907F9019
:100FA0006F905F904F903F902F900895DB018F934B
:100FB0009F930BD0BF91AF91A29F800D911DA39FD6
:100FC000900DB29F900D1124089509D0A59F900D0A
:100FD000B49F900DA49F800D911D11240895A29F90
:100FE000B001B39FC001A39F700D811D1124911DFD
:100FF000B29F700D811D1124911D0895283008F0B5
:1010000027E03327DA01990F311D87FD91600096A3
:101010006105710539F432602E5F3D9330E32A9506
:10102000E1F708959F3F30F080387105610509F0C0
:101030003C5F3C5F3D93913008F08068911DDF93E9
:10104000CF931F930F93FF92EF92192F987F96954E
:10105000E92F96959695E90FFF27EC59FE4F9927B2
:101060003327EE24FF24A701E70105900894079495
:1010700028F4360FE71EF81E491F511D660F771F13
:10108000881F991F0694A1F70590079428F4E70E8E
:10109000F81E491F561FC11D770F881F991F661F15
:1010A0000694A1F70590079428F4F80E491F561FDF
:1010B000C71FD11D880F991F661F771F0694A1F7C0
:1010C0000590079420F4490F561FC71FD81F990F8A
:1010D000661F771F881F0694A9F7849110951770D3
:1010E00041F0D695C79557954795F794E7941A958B
:1010F000C1F7EAE0F1E0689415901591359165919A
:10110000959105907FE27395E118F10A430B560B18
:10111000C90BD009C0F7E10CF11E431F561FC91FB0
:10112000D01D7EF4703311F48A95E6CFE894015017
:1011300030F0080F0AF40027021708F4202F239537
:10114000022F7A3328F079E37D932A95E9F710C0CE
:101150007D932A9589F60694979567953795179507
:101160001794E118F10A430B560BC90BD00998F0FC
:1011700023957E9173957A3308F070E37C93201366
:10118000B8F77E9170617D9330F0839571E37D9324
:1011900070E32A95E1F71124EF90FF900F911F91D2
:1011A000CF91DF91992787FD90950895FC010590D7
:1011B000615070400110D8F7809590958E0F9F1F59
:1011C0000895FC016150704001900110D8F780959E
:1011D00090958E0F9F1F0895CF93DF93CDB7DEB705
:1011E000AE01465F5F4F688579858E819F8157DBB1
:1011F000DF91CF9108950F931F93CF93DF93182F13
:10120000092FEB018B8181FD03C08FEF9FEF20C081
:1012100082FF10C04E815F812C813D8142175307B0
:101220007CF4E881F9819F012F5F3F4F3983288348
:10123000108306C0E885F985812F1995892B29F738
:101240002E813F812F5F3F4F3F832E83812F902F31
:10125000DF91CF911F910F9108958F929F92AF923E
:10126000BF92CF92DF92EF92FF920F931F93CF9393
:10127000DF936B014A017901D90113962C9121FF6B
:101280001DC0C0E0D0E0C815D905D9F08C015C01C3
:10129000AC0CBD1CC8010A151B0571F00F5F1F4F78
:1012A000D7011896ED91FC911997B701DC018C914B
:1012B0001995892B79F305C02196E5CF80E090E060
:1012C00001C0CE01DF91CF911F910F91FF90EF9060
:1012D000DF90CF90BF90AF909F908F900895FA01CC
:1012E000AA27283051F1203181F1E8946F936E7F65
:1012F0006E5F7F4F8F4F9F4FAF4FB1E03ED0B4E056
:101300003CD0670F781F891F9A1FA11D680F791F96
:101310008A1F911DA11D6A0F711D811D911DA11DA7
:1013200020D009F468943F912AE0269F11243019B7
:10133000305D3193DEF6CF010895462F4770405D52
:101340004193B3E00FD0C9F7F6CF462F4F70405D01
:101350004A3318F0495D31FD4052419302D0A9F75C
:10136000EACFB4E0A6959795879577956795BA9556
:10137000C9F700976105710508959B01AC010A2E1C
:1013800006945795479537952795BA95C9F7620FF3
:0E139000731F841F951FA01D0895F894FFCFB2
:10139E0000000003000000001B012C0100002020B3
:1013AE0020204E756D65726F20202020517561646E
:1013BE007261646F202053656E6F20205261697ACE
:1013CE002071756164726164610A0A002531306CA6
:1013DE007520202531306C7520202531302E366653
:0C13EE002020202531302E36660A000039
:00000001FF
