:020000020000FC
:040000000C9400015B
:040020000C94160125
:100200000FEF0DBF01E20EBF0E9445010E94640185
:100210000E9468017894F2E0ECED0E94240104E170
:100220000E942E010A95E1F70C940B010F930091A7
:100230003F000F93009108010395009308010F916F
:1002400000933F000F9118950F930591043221F010
:100250000E9452010C9425010F9108950F931F9352
:10026000B2E0A0E00CE70D9302E10C93B2E0A0E055
:100270000C9101500D930C9100400C93012B11F047
:100280000C9436011F910F91089510E01093C50052
:1002900007E60093C40008E10093C10006E0009364
:1002A000C20008951F931091C00015FFFCCF00936A
:1002B000C6001F9108951F931091C00017FFFCCF37
:1002C0000091C6001F9108950FEF00930701089554
:1002D00000E800936A0000E80DBB0895476572616D
:1002E0006E646F206F6E6461206A69677361770A5C
:0202F0000D24DB
:00000001FF
