:1000000071C0000086C0000084C0000082C00000F3
:1000100080C000007EC000007CC000007AC00000EC
:1000200078C0000076C0000074C0000072C00000FC
:1000300070C000006EC000006CC000006AC000000C
:1000400068C0000066C0000064C0000062C000001C
:1000500060C000005EC000005CC000005AC000002C
:1000600058C0000056C0000054C0000052C000003C
:1000700050C000004EC000004CC000004AC000004C
:1000800048C0000046C0000044C0000042C000005C
:1000900040C000003EC000003CC000003AC000006C
:1000A00038C0000036C0000034C0000032C000007C
:1000B00030C000002EC000002CC000002AC000008C
:1000C00028C0000026C0000024C0000022C000009C
:1000D00020C000001EC000001CC000001AC00000AC
:1000E00018C0000011241FBECFEFD1E2DEBFCDBF8C
:1000F00000E00CBF12E0A0E0B2E0EAEEF8E000E0C1
:100100000BBF02C007900D92AE38B107D9F728D0C7
:10011000EAC376CFCF93C82F8A3011F48DE0FADF8F
:100120008091C80085FFFCCFC093CE0080E090E0B6
:10013000CF9108958091C8008823E4F78091CE0084
:1001400090E008951092C80088E18093C90086E08D
:100150008093CA001092CD0087E68093CC0008956A
:100160008FEF83BB9FE194BB8093010180930401D7
:100170001092070110920A01E5DF20E032E040E32F
:1001800050E061E070E08EE092E0BED020E032E02E
:1001900044E150E061E070E08FE392E0B5D0812C63
:1001A000912C54018394E12CF12C51C0E092020176
:1001B0000093050125E02A95F1F7000080910601E2
:1001C0009091090130E0C32FD92FC80FD11DDF93C3
:1001D000CF931F930F93FF92EF9284E592E09F934A
:1001E0008F9380E092E09F938F937FD0E09EC00139
:1001F000E19E900DF09E900D11242DB73EB7265F25
:100200003F4F0FB6F8943EBF0FBE2DBFC817D9079A
:1002100089F09F938F9382E692E09F938F9380E083
:1002200092E09F938F9361D00F900F900F900F905B
:100230000F900F900F5F1F4F02C000E010E00F3FC4
:10024000110509F008F4B2CF3FEFE31AF30A8FEF7C
:10025000E816F10491F388F3C501B40128EE33E008
:1002600040E050E020D0672B682B692BB1F4BF929F
:10027000AF929F928F928EE792E09F938F9380E050
:1002800092E09F938F9331D02DB73EB7285F3F4FB9
:100290000FB6F8943EBF0FBE2DBF3FEF831A930AEF
:1002A000A30AB30A80CFA1E21A2EAA1BBB1BFD0131
:1002B0000DC0AA1FBB1FEE1FFF1FA217B307E40745
:1002C000F50720F0A21BB30BE40BF50B661F771F9D
:1002D000881F991F1A9469F760957095809590957D
:1002E0009B01AC01BD01CF010895CF93DF93CDB742
:1002F000DEB7AE01465F5F4F688579858E819F814D
:1003000045D0DF91CF9108958F929F92AF92BF9287
:10031000CF92DF92EF92FF920F931F93CF93DF93D1
:100320005B014A017901D90113962C9121FF1DC06F
:10033000C0E0D0E0C815D905D9F08C016C01CA0C19
:10034000DB1CC8010C151D0571F00F5F1F4FD70195
:100350001896ED91FC911997B701DC018C911995D4
:10036000892B79F305C02196E5CF80E090E001C0AC
:10037000CE01DF91CF911F910F91FF90EF90DF9011
:10038000CF90BF90AF909F908F9008952F923F9203
:100390004F925F926F927F928F929F92AF92BF9295
:1003A000CF92DF92EF92FF920F931F93CF93DF9341
:1003B000CDB7DEB72B970FB6F894DEBF0FBECDBF1B
:1003C0006C017B018A01FC0117821682838181FF07
:1003D000BFC1CE0101963C01F6019381F70193FD67
:1003E000859193FF81917F01882309F4ADC1853206
:1003F00039F493FD859193FF81917F01853221F43A
:10040000B60190E0D6D1E8CF912C212C312CFFE120
:10041000F315D8F08B3279F038F4803279F08332EA
:10042000A1F4232D20611DC08D3261F0803369F469
:10043000232D216016C0832D8260382EE32DE460C9
:100440003E2E2AC0F32DF8601DC037FC2DC020EDD4
:10045000280F2A3040F08E32B9F436FC75C1232DB6
:100460002064322E19C036FE06C08AE0989E200D08
:100470001124922E11C0EAE02E9E200D1124222E6E
:10048000F32DF0623F2E08C08C3621F4832D806856
:10049000382E02C0883641F4F70193FD859193FF11
:1004A00081917F018111B3CF982F9F7D9554933017
:1004B00028F40C5F1F4F9FE399830DC0833631F002
:1004C000833771F0833509F055C020C0F801808171
:1004D00089830E5F1F4F88248394912C530112C08F
:1004E0002801F2E04F0E511CF801A080B18036FEC9
:1004F00003C0692D70E002C06FEF7FEFC5014ED1E0
:100500004C018201F32DFF773F2E15C0280122E018
:10051000420E511CF801A080B18036FE03C0692D47
:1005200070E002C06FEF7FEFC5012DD14C01F32DBC
:10053000F0683F2E820133FC19C0822D90E08816AE
:100540009906A0F4B60180E290E033D12A94F5CF69
:10055000F50137FC859137FE81915F01B60190E08E
:1005600028D121102A9421E0821A91088114910443
:1005700079F7E1C0843611F0893639F5F80137FE94
:1005800007C060817181828193810C5F1F4F08C019
:1005900060817181072E000C880B990B0E5F1F4F35
:1005A000F32DFF763F2E97FF09C0909580957095AB
:1005B00061957F4F8F4F9F4FF0683F2E2AE030E0CC
:1005C000A30133D1882E861844C0853731F4232DFA
:1005D0002F7EB22E2AE030E025C0932D997FB92ED0
:1005E0008F36C1F018F4883579F0AEC0803719F035
:1005F000883721F0A9C0E92FE061BE2EB4FE0DC0FE
:10060000FB2DF460BF2E09C034FE0AC0292F2660DE
:10061000B22E06C028E030E005C020E130E002C084
:1006200020E132E0F801B7FE07C06081718182816C
:1006300093810C5F1F4F06C06081718180E090E064
:100640000E5F1F4FA301F1D0882E8618FB2DFF7778
:100650003F2E36FE0DC0232D2E7FA22E891458F476
:1006600034FE0BC032FC09C0832D8E7EA82E05C03F
:10067000B82CA32C03C0B82C01C0B92CA4FE0FC009
:10068000FE01E80DF11D8081803321F49A2D997EC1
:10069000A92E09C0A2FE06C0B394B39404C08A2D4B
:1006A000867809F0B394A3FC10C0A0FE06C0B21473
:1006B00080F4280C922C9B180DC0B21458F4B6018B
:1006C00080E290E076D0B394F8CFB21418F42B18EF
:1006D00002C0982C212CA4FE0FC0B60180E390E04C
:1006E00068D0A2FE16C0A1FC03C088E790E002C05B
:1006F00088E590E0B6010CC08A2D867851F0A1FE05
:1007000002C08BE201C080E2A7FC8DE2B60190E05E
:1007100050D0891430F4B60180E390E04AD09A9426
:10072000F8CF8A94F301E80DF11D8081B60190E0C5
:1007300040D08110F6CF222009F44ECEB60180E2DF
:1007400090E037D02A94F7CFF6018681978102C0D6
:100750008FEF9FEF2B960FB6F894DEBF0FBECDBF85
:10076000DF91CF911F910F91FF90EF90DF90CF908D
:10077000BF90AF909F908F907F906F905F904F90C1
:100780003F902F900895FC0105906150704001103A
:10079000D8F7809590958E0F9F1F0895FC016150AA
:1007A000704001900110D8F7809590958E0F9F1F93
:1007B00008950F931F93CF93DF93FB01238121FDB6
:1007C00003C08FEF9FEF2CC022FF16C046815781D8
:1007D000248135814217530744F4A081B1819D01E2
:1007E0002F5F3F4F318320838C93268137812F5F8A
:1007F0003F4F3783268314C08B01EC01FB0100843B
:10080000F185E02D1995892BE1F6D80116968D9189
:100810009C911797019617969C938E931697CE01ED
:10082000DF91CF911F910F910895FA01AA272830E7
:1008300051F1203181F1E8946F936E7F6E5F7F4FAD
:100840008F4F9F4FAF4FB1E03ED0B4E03CD0670F29
:10085000781F891F9A1FA11D680F791F8A1F911D7C
:10086000A11D6A0F711D811D911DA11D20D009F4CC
:1008700068943F912AE0269F11243019305D31930E
:10088000DEF6CF010895462F4770405D4193B3E0F7
:100890000FD0C9F7F6CF462F4F70405D4A3318F09E
:1008A000495D31FD4052419302D0A9F7EACFB4E04F
:1008B000A6959795879577956795BA95C9F7009707
:1008C0006105710508959B01AC010A2E06945795A8
:1008D000479537952795BA95C9F7620F731F841FFF
:0A08E000951FA01D0895F894FFCFA6
:1008EA0000000003000000008A009A00000054651E
:1008FA0073746520646F206D756C7469706C6963BC
:10090A0061646F7220636F6D62696E6163696F6E95
:10091A00616C206465203820626974732E0A00496C
:10092A006E696369616E646F206F207465737465A4
:10093A002E0A0A002578202A202578203D202578AD
:10094A000A004572726F3A2070726F6475746F2074
:10095A00636F727265746F203D2025780A004369BF
:0E096A00636C6F204E6F20256C75200A000014
:00000001FF
