:100000000C9434000C9449000C9449000C94490061
:100010000C9449000C9449000C9449000C9449003C
:100020000C9449000C9449000C9449000C9449002C
:100030000C9449000C9449000C9449000C9449001C
:100040000C9449000C9449000C9449000C9449000C
:100050000C9449000C9449000C9449000C944900FC
:100060000C9449000C94490011241FBECFEFD8E036
:10007000DEBFCDBF11E0A0E0B1E0EAE6F9E002C0EA
:1000800005900D92AC34B107D9F70E94CD000C94C5
:10009000B3040C940000CF93C82F8A3019F48DE07C
:1000A0000E944B00E0ECF0E0908195FFFDCFC09303
:1000B000C60080E090E0CF910895E0ECF0E0808110
:1000C0008823ECF78091C60090E00895CF92DF92EC
:1000D000EF92FF920F931F93CF93DF9320E031E0D5
:1000E00047E250E061E070E08EE091E00E940202A1
:1000F000C12CD12C760106E311E0C0E0D1E0C701AC
:10010000B6010E94DB000E941C019F938F937F9396
:100110006F93A7019601C701B6010E9494019F93B6
:100120008F937F936F93FF92EF92DF92CF921F9303
:100130000F93DF93CF930E94BE018FEFC81AD80AA6
:10014000E80AF80A8DB79EB740960FB6F8949EBF9E
:100150000FBE8DBF9BE0C916D104E104F10479F60E
:1001600060E071E08AE090E00E94D001DF91CF91E1
:100170001F910F91FF90EF90DF90CF900895109214
:10018000C00088E18093C1008EE08093C20010928D
:10019000C50087E68093C40008950E94BF000E94B6
:1001A00066002FEF83E294EF215080409040E1F70A
:1001B00000C00000F4CFE89409C097FB3EF490958E
:1001C0008095709561957F4F8F4F9F4F9923A9F030
:1001D000F92F96E9BB279395F695879577956795BF
:1001E000B795F111F8CFFAF4BB0F11F460FF1BC003
:1001F0006F5F7F4F8F4F9F4F16C0882311F096E996
:1002000011C0772321F09EE8872F762F05C0662343
:1002100071F096E8862F70E060E02AF09A95660FFC
:10022000771F881FDAF7880F9695879597F90895B5
:1002300011F40EF44DC03EC05DD0D0F39923D9F334
:10024000CEF39F57550B87FF46D00024A0E640EA27
:10025000900180585695979528F4805C660F771F1B
:10026000881F20F026173707480730F4621B730BEE
:10027000840B202931294A2BA69517940794202511
:1002800031254A2758F7660F771F881F20F0261759
:100290003707480730F4620B730B840B200D311DB8
:1002A000411DA09581F7B901842F9158880F96952B
:1002B000879508959F3F31F0915020F48795779569
:1002C0006795B795880F911D9695879597F908952D
:1002D0009FEF80EC089591505040660F771F881F64
:1002E000D2F7089557FD9058440F551F59F05F3FBE
:1002F00071F04795880F97FB991F61F09F3F79F048
:1003000087950895121613061406551FF2CF4695C9
:10031000F1DF08C0161617061806991FF1CF86954B
:100320007105610508940895DB018F939F930E94E6
:10033000A401BF91AF91A29F800D911DA39F900D2D
:10034000B29F900D112408950E94AF01A59F900DBA
:10035000B49F900DA49F800D911D11240895A29F1C
:10036000B001B39FC001A39F700D811D1124911D89
:10037000B29F700D811D1124911D0895A0E0B0E081
:10038000E4ECF1E00C948C04AE01475F5F4F6F81A9
:1003900078858D819E810E943602E2E00C94A8044B
:1003A0000F931F93CF93DF93182F092FEB018B81AE
:1003B00081FD03C08FEF9FEF20C082FF10C04E81F0
:1003C0005F812C813D81421753077CF4E881F981DC
:1003D0009F012F5F3F4F39832883108306C0E88534
:1003E000F985812F0995892B29F72E813F812F5F70
:1003F0003F4F3F832E83812F902FDF91CF911F910D
:100400000F910895A0E0B0E0E8E0F2E00C948204DF
:100410006B014A017901D90113962C9121FF1DC06E
:10042000C0E0D0E0C815D905D9F08C015C01AC0C56
:10043000BD1CC8010A151B0571F00F5F1F4FD701C6
:100440001896ED91FC911997B701DC018C910995F3
:10045000892B79F305C02196E5CF80E090E001C0BB
:10046000CE01CDB7DEB7ECE00C949E04ACE0B0E07A
:10047000ECE3F2E00C947C047C016B018A01FC014A
:1004800017821682838181FFBDC1CE0101964C0186
:10049000F7019381F60193FD859193FF81916F019F
:1004A000882309F4ABC1853239F493FD859193FF1C
:1004B00081916F01853229F4B70190E00E94D0014B
:1004C000E7CF512C312C20E02032A0F48B3269F0A0
:1004D00030F4803259F0833269F420612CC08D32BF
:1004E00039F0803339F4216026C02260246023C0B3
:1004F000286021C027FD27C030ED380F3A3078F44E
:1005000026FF06C0FAE05F9E300D1124532E13C063
:100510008AE0389E300D1124332E20620CC08E32BA
:1005200021F426FD6BC1206406C08C3611F42068CE
:1005300002C0883641F4F60193FD859193FF8191C5
:100540006F018111C1CF982F9F7D9554933028F46E
:100550000C5F1F4FFFE3F9830DC0833631F0833703
:1005600071F0833509F05BC022C0F8018081898376
:100570000E5F1F4F44244394512C540115C0380181
:10058000F2E06F0E711CF801A080B18026FF03C05D
:10059000652D70E002C06FEF7FEFC5012C870E94D0
:1005A00013042C0183012C852F77222E17C03801CC
:1005B000F2E06F0E711CF801A080B18026FF03C02D
:1005C000652D70E002C06FEF7FEFC5012C870E94A0
:1005D00008042C012C852068222E830123FC1BC0DB
:1005E000832D90E048165906B0F4B70180E290E000
:1005F0000E94D0013A94F4CFF50127FC859127FEA3
:1006000081915F01B70190E00E94D00131103A94CE
:10061000F1E04F1A51084114510471F7E5C08436D6
:1006200011F0893639F5F80127FF07C06081718123
:10063000828193810C5F1F4F08C060817181882780
:1006400077FD8095982F0E5F1F4F2F76B22E97FF64
:1006500009C090958095709561957F4F8F4F9F4F02
:100660002068B22E2AE030E0A4010E941E04A82EC9
:10067000A81844C0853729F42F7EB22E2AE030E036
:1006800025C0F22FF97FBF2E8F36C1F018F48835C0
:1006900079F0B4C0803719F0883721F0AFC02F2F20
:1006A0002061B22EB4FE0DC08B2D8460B82E09C01F
:1006B00024FF0AC09F2F9660B92E06C028E030E0C4
:1006C00005C020E130E002C020E132E0F801B7FED1
:1006D00007C060817181828193810C5F1F4F06C0CA
:1006E0006081718180E090E00E5F1F4FA4010E9445
:1006F0001E04A82EA818FB2DFF77BF2EB6FE0BC038
:100700002B2D2E7FA51450F4B4FE0AC0B2FC08C0F5
:100710002B2D2E7E05C07A2C2B2D03C07A2C01C0E8
:10072000752C24FF0DC0FE01EA0DF11D8081803380
:1007300011F4297E09C022FF06C07394739404C08B
:10074000822F867809F0739423FD13C020FF06C022
:100750005A2C731418F4530C5718732C731468F430
:10076000B70180E290E02C870E94D00173942C8521
:10077000F5CF731410F4371801C0312C24FF12C0C8
:10078000B70180E390E02C870E94D0012C8522FFE6
:1007900017C021FF03C088E590E002C088E790E021
:1007A000B7010CC0822F867859F021FD02C080E28B
:1007B00001C08BE227FD8DE2B70190E00E94D001DD
:1007C000A51438F4B70180E390E00E94D0015A9458
:1007D000F7CFAA94F401EA0DF11D8081B70190E0F2
:1007E0000E94D001A110F5CF332009F451CEB701FA
:1007F00080E290E00E94D0013A94F6CFF701868122
:10080000978102C08FEF9FEF2C96E2E10C94980441
:10081000FC010590615070400110D8F780959095CB
:100820008E0F9F1F0895FC016150704001900110D0
:10083000D8F7809590958E0F9F1F0895FA01AA27EB
:10084000283051F1203181F1E8946F936E7F6E5F13
:100850007F4F8F4F9F4FAF4FB1E03ED0B4E03CD0C1
:10086000670F781F891F9A1FA11D680F791F8A1FA4
:10087000911DA11D6A0F711D811D911DA11D20D00B
:1008800009F468943F912AE0269F11243019305DC5
:100890003193DEF6CF010895462F4770405D4193B6
:1008A000B3E00FD0C9F7F6CF462F4F70405D4A3303
:1008B00018F0495D31FD4052419302D0A9F7EACFCB
:1008C000B4E0A6959795879577956795BA95C9F7FA
:1008D00000976105710508959B01AC010A2E0694ED
:1008E0005795479537952795BA95C9F7620F731FA6
:1008F000841F951FA01D08952F923F924F925F92E3
:100900006F927F928F929F92AF92BF92CF92DF921F
:10091000EF92FF920F931F93CF93DF93CDB7DEB784
:10092000CA1BDB0B0FB6F894DEBF0FBECDBF099418
:100930002A88398848885F846E847D848C849B846F
:10094000AA84B984C884DF80EE80FD800C811B817D
:10095000AA81B981CE0FD11D0FB6F894DEBF0FBEAC
:0A096000CDBFED010895F894FFCF1C
:10096A0000000003000000004B005D000000202092
:10097A0020204E756D65726F2020202051756164AC
:10098A007261646F20205261697A207175616472A4
:10099A006164610A0A002531306C752020253130E6
:0C09AA006C7520202531302E36660A00C6
:00000001FF
