:020000020000FC
:040000000C9400015B
:040020000C94190122
:100200000FEF0DBF01E20EBF0E9454010E94730167
:100210000E9478017894F2E0ECEF0E94270105B18A
:10022000039505B904E10E9437010A95E1F70C94A2
:100230000B010F9300913F000F9300910B01039569
:1002400000930B010F9100933F000F9118950F93AE
:1002500000913F000F930591043221F00E9461014B
:100260000C942B010F9100933F000F9108950F9371
:1002700000913F000F931F93B2E0A0E008ED0D93B3
:1002800008EB0C93B2E0A0E00C9101500D930C919F
:1002900000400C93012B11F00C9442011F910F911F
:1002A00000933F000F91089510E01093C50007E6FA
:1002B0000093C40008E10093C10006E00093C2006F
:1002C00008951F931091C00015FFFCCF0093C60046
:1002D0001F9108951F931091C00017FFFCCF00914C
:1002E000C6001F9108950FEF04B900930A01089505
:1002F00000E400936A0000E80DBB089548656C6C4B
:0C0300006F2C20776F726C64210A0D24B2
:00000001FF
