:020000020000FC
:040000000C9400015B
:100200000FEF0DBF08E00EBF0E941801009103021E
:100210000F60009303020BB90E941F0100910302BB
:10022000007F009303020BB90E941F010C9406018A
:100230000FE00AB900E0009303020BB908950F9391
:100240001F932F93AF93BF932FB72F93B2E0A0E0EC
:1002500005E00D930BEB0D9300E30D93B2E0A0E0EE
:100260000D911D912D91002B31F4112B21F4222B96
:1002700011F40C94430121502E9310401E93004022
:100280000E930C9430012F912FBFBF91AF912F91FE
:060290001F910F9108957B
:00000001FF
