:100000000C943A000C944F000C944F000C944F0049
:100010000C944F000C944F000C944F000C944F0024
:100020000C944F000C944F000C944F000C944F0014
:100030000C944F000C944F000C944F000C944F0004
:100040000C944F000C944F000C944F000C944F00F4
:100050000C944F000C944F000C944F000C944F00E4
:100060000C944F000C944F006364696E6F7073754D
:1000700078585B0011241FBECFEFD8E0DEBFCDBFA4
:1000800011E0A0E0B1E0E6EDFEE002C005900D92C7
:10009000AA38B107D9F70E94D8000C9469070C94CC
:1000A0000000CF93C82F8A3019F48DE00E945100D0
:1000B000E0ECF0E0908195FFFDCFC093C60080E0BA
:1000C00090E0CF910895CF93BC01E0ECF0E0808107
:1000D0008823ECF7C091C6008C2F0E9451008C2F12
:1000E00090E0CF910895CF92DF92EF92FF920F931D
:1000F0001F93CF93DF938B01EA0181309105B9F40F
:10010000DF934F931F936F938EE091E09F938F93B4
:1001100080E091E09F938F930E9440018DB79EB73E
:1001200008960FB6F8949EBF0FBE8DBF2AC07C0103
:1001300021E0E21AF10883E090E06C01C41AD50ACC
:10014000C61AD70AA601C7010E947300DF93CF9396
:100150001F930F938EE091E09F938F9380E091E047
:100160009F938F930E944001AE01B601C7010E9488
:1001700073008DB79EB708960FB6F8949EBF0FBE5A
:100180008DBFDF91CF911F910F91FF90EF90DF9086
:10019000CF9008951092C00088E18093C10086E05E
:1001A0008093C2001092C50087E68093C400089532
:1001B000CF93DF9300D000D000D0CDB7DEB70E9440
:1001C000CA005E0185E0A80EB11C6E0193E0C90E65
:1001D000D11CCE0101967C0103E511E020E031E065
:1001E00047E350E061E070E08BE191E00E9496010E
:1001F000BF92AF92DF92CF92FF92EF921F930F9335
:1002000080E091E09F938F930E9484010FB6F89451
:10021000DEBF0FBECDBF89819A810B9730F58B81F0
:100220009C818330910508F52D813E812330310575
:10023000E0F482179307C9F020E031E046E150E096
:1002400061E070E08CE591E00E9496014D815E8155
:100250006B817C8189819A810E94730060E071E0EA
:100260008AE090E00E945201B9CF20E031E045E100
:1002700050E061E070E083E791E00E949601AECF2C
:10028000A0E0B0E0E6E4F1E00C944207AE01475F85
:100290005F4F6F8178858D819E810E94CA01E2E067
:1002A0000C945E070F931F93CF93DF93182F092FA2
:1002B000EB018B8181FD03C08FEF9FEF20C082FF98
:1002C00010C04E815F812C813D81421753077CF421
:1002D000E881F9819F012F5F3F4F39832883108385
:1002E00006C0E885F985812F0995892B29F72E818C
:1002F0003F812F5F3F4F3F832E83812F902FDF91D0
:10030000CF911F910F910895A0E0B0E0EAE8F1E0ED
:100310000C944207AE01475F5F4F6F8178858D81F6
:100320009E810E941A05E2E00C945E07A0E0B0E016
:10033000ECE9F1E00C9438076B014A017901D9012D
:1003400013962C9121FF1DC0C0E0D0E0C815D9053F
:10035000D9F08C015C01AC0CBD1CC8010A151B0551
:1003600071F00F5F1F4FD7011896ED91FC9119970F
:10037000B701DC018C910995892B79F305C0219691
:10038000E5CF80E090E001C0CE01CDB7DEB7ECE074
:100390000C945407ACE0B0E0E0EDF1E00C943207CF
:1003A0007C016B018A01FC0117821682838181FF27
:1003B000BDC1CE0101964C01F7019381F60193FD79
:1003C000859193FF81916F01882309F4ABC1853238
:1003D00039F493FD859193FF81916F01853229F462
:1003E000B70190E00E945201E7CF512C312C20E060
:1003F0002032A0F48B3269F030F4803259F083322D
:1004000069F420612CC08D3239F0803339F42160D9
:1004100026C02260246023C0286021C027FD27C099
:1004200030ED380F3A3078F426FF06C0FAE05F9ED0
:10043000300D1124532E13C08AE0389E300D112444
:10044000332E20620CC08E3221F426FD6BC1206455
:1004500006C08C3611F4206802C0883641F4F601DB
:1004600093FD859193FF81916F018111C1CF982FE9
:100470009F7D9554933028F40C5F1F4FFFE3F98361
:100480000DC0833631F0833771F0833509F05BC0DE
:1004900022C0F801808189830E5F1F4F442443945A
:1004A000512C540115C03801F2E06F0E711CF80197
:1004B000A080B18026FF03C0652D70E002C06FEF01
:1004C0007FEFC5012C870E946F062C0183012C85CC
:1004D0002F77222E17C03801F2E06F0E711CF80141
:1004E000A080B18026FF03C0652D70E002C06FEFD1
:1004F0007FEFC5012C870E9464062C012C852068A3
:10050000222E830123FC1BC0832D90E04816590640
:10051000B0F4B70180E290E00E9452013A94F4CF27
:10052000F50127FC859127FE81915F01B70190E0DD
:100530000E94520131103A94F1E04F1A51084114CF
:10054000510471F7E5C0843611F0893639F5F801A8
:1005500027FF07C060817181828193810C5F1F4FEB
:1005600008C060817181882777FD8095982F0E5F84
:100570001F4F2F76B22E97FF09C0909580957095EA
:1005800061957F4F8F4F9F4F2068B22E2AE030E059
:10059000A4010E94D106A82EA81844C0853729F4CA
:1005A0002F7EB22E2AE030E025C0F22FF97FBF2E39
:1005B0008F36C1F018F4883579F0B4C0803719F05F
:1005C000883721F0AFC02F2F2061B22EB4FE0DC0AE
:1005D0008B2D8460B82E09C024FF0AC09F2F96601F
:1005E000B92E06C028E030E005C020E130E002C0AE
:1005F00020E132E0F801B7FE07C06081718182819D
:1006000093810C5F1F4F06C06081718180E090E094
:100610000E5F1F4FA4010E94D106A82EA818FB2D23
:10062000FF77BF2EB6FE0BC02B2D2E7FA51450F4E6
:10063000B4FE0AC0B2FC08C02B2D2E7E05C07A2C59
:100640002B2D03C07A2C01C0752C24FF0DC0FE0198
:10065000EA0DF11D8081803311F4297E09C022FF4B
:1006600006C07394739404C0822F867809F0739443
:1006700023FD13C020FF06C05A2C731418F4530C2A
:100680005718732C731468F4B70180E290E02C873C
:100690000E94520173942C85F5CF731410F437180F
:1006A00001C0312C24FF12C0B70180E390E02C87F9
:1006B0000E9452012C8522FF17C021FF03C088E54C
:1006C00090E002C088E790E0B7010CC0822F8678E6
:1006D00059F021FD02C080E201C08BE227FD8DE2CE
:1006E000B70190E00E945201A51438F4B70180E3ED
:1006F00090E00E9452015A94F7CFAA94F401EA0DB7
:10070000F11D8081B70190E00E945201A110F5CF48
:10071000332009F451CEB70180E290E00E945201EB
:100720003A94F6CFF7018681978102C08FEF9FEF51
:100730002C96E2E10C944E0720FD09C0FC0123FD3C
:1007400005C022FF02C073836283518340830895F2
:1007500044FD10C046FD10C0DB01FC01AA0FBB1F09
:10076000EE1FFF1F1094D1F76A0F7B1F8E1F9F1F74
:1007700031E003C033E001C034E0660F771F881F0B
:10078000991F3150D1F7620F711D811D911D089580
:100790000F931F93CF93DF938C01C8010E947A06B9
:1007A000EC0197FD08C00E945106892BB1F7B801F2
:1007B000CE010E94B806CE01DF91CF911F910F911B
:1007C00008958F929F92AF92CF92DF92EF92FF9215
:1007D0000F931F93CF93DF93EC01A62E4A01022FB4
:1007E0000E947A06AC0155274B32510521F04D325B
:1007F000510551F40068AA9411F480E067C0CE015D
:100800000E947A0697FDF9CF102F1D7F302F30738D
:1008100001F58033F1F4FF24FA94FA0C09F442C094
:10082000CE010E947A0697FD3DC0382F3F7D3835B6
:1008300051F41264AA94AA94A9F1CE010E947A06F6
:1008400097FF07C02FC006FF02C0126001C01261EF
:10085000AF2CC12CD12C760120ED280F283080F050
:1008600014FF04C0BE010E94B80619C02A3040F02F
:1008700016FFF8CF2F7D3FEE320F363098F7275016
:10088000412FC701B6010E94A8036B017C011260D1
:10089000AA9459F0CE010E947A0697FFDDCF11FD90
:1008A00004C0ABCFC12CD12C760117FF08C0F09447
:1008B000E094D094C094C11CD11CE11CF11C212FE8
:1008C000B701A601C4010E949C0381E0DF91CF9192
:1008D0001F910F91FF90EF90DF90CF90AF909F907E
:1008E0008F900895A1E2B0E0E8E7F4E00C943707B8
:1008F0005C017A018E010F5F1F4F680180E2D80111
:100900001D928A95E9F7F501738040E050E0812C53
:10091000B0E0912C81E090E0F90173FCA59173FEA9
:10092000A1918F017A2F9F01A11103C080E090E077
:100930007DC0AE3519F44115510559F1E92DF0E0AE
:10094000E417F5073CF4AD3569F1AD3219F4BB237A
:1009500019F103C0B11101C08A2EE72FE695E69583
:10096000E69586010E0F111DF801A72FA7708C01C7
:1009700002C0000F111FAA95E2F7D801B081BA2B6F
:10098000B083781559F0781510F47F5FE6CF715079
:10099000E4CF9924939403C0B1E001C0B0E04F5F6D
:1009A0005F4FBACFBB2319F08E8180628E83911086
:1009B00003C09924939415C0F601CE01819620813D
:1009C00020952193E817F907D1F7F3CFE114F1044B
:1009D00029F0D7018C93F70131967F01615001F125
:1009E000912CC50169A30E947A0669A197FD16C0E2
:1009F000282F269526952695F601E20FF11D2081D8
:100A000030E0AC014770552702C0359527954A95CF
:100A1000E2F720FDDBCFB5010E94B806911086CF2A
:100A2000E114F10411F0D7011C92C801A196EDE088
:100A30000C9453074F925F927F928F929F92AF9246
:100A4000BF92CF92DF92EF92FF920F931F93CF93BB
:100A5000DF931F92CDB7DEB78C012B017A01FC0129
:100A600017821682A12CF801D380F201D3FC859164
:100A7000D3FE8191382F2F01882309F4FCC090E028
:100A800039830E9451063981892B21F0C8010E94C7
:100A9000C803E9CF353241F4F201D3FC3591D3FEDE
:100AA00031912F01353269F4C80139830E947A06E9
:100AB000398197FDDEC03817B1F2B8010E94B8063F
:100AC000DAC03A3241F4D3FC3591D3FE31912F0193
:100AD000BB24B39401C0B12C712C20ED230F2A301C
:100AE00090F4FB2DF260BF2E672D70E080E090E067
:100AF00040E20E94A803762EF201D3FC3591D3FE8A
:100B000031912F01EACFB1FE03C0711003C0B3C011
:100B100077247A94383619F03C3661F014C0F2012B
:100B2000D3FC3591D3FE31912F01383661F4FB2D82
:100B3000F860BF2E8B2D8460B82EF201D3FC359166
:100B4000D3FE31912F01332309F495C0632F70E058
:100B500088E690E039830E9459063981892B09F48F
:100B60008AC0B0FC07C0F701C080D180C7010296DF
:100B70007C0102C0C12CD12C3E3651F4F8014681D3
:100B8000578160E070E02B2DC6010E949C036BCF63
:100B90003336A1F4B1FC02C077247394C8010E94DB
:100BA0007A0697FD66C0C114D10429F0F60180834E
:100BB000C60101966C017A9489F757C03B3559F408
:100BC0009201A601672DC8010E9472042C010097B2
:100BD00009F04BC045C0C80139830E94C803398160
:100BE00097FD47C03F3669F128F4343631F1393684
:100BF00079F12BC0333769F03537F9F026C0C114CD
:100C0000D10429F0F6018082C60101966C017A9424
:100C100071F0C8010E947A064C0197FD08C00E943D
:100C20005106892B61F3B801C4010E94B806C114B2
:100C3000D104D9F0F601108218C0FB2DF062BF2E4E
:100C400007C08B2D8061B82E03C09B2D9064B92EF8
:100C50002B2DA601672DC8010E94E103811105C05B
:100C6000F8018381807329F406C0B0FCFCCEA39404
:100C7000FACEAA2019F08A2D90E002C08FEF9FEFE4
:100C80000F90DF91CF911F910F91FF90EF90DF9028
:100C9000CF90BF90AF909F908F907F905F904F903C
:100CA00008959111DCC0803219F089508550D0F739
:100CB0000895FC010590061621F00020D9F7C00127
:100CC00008953197CF010895FC010590615070405F
:100CD0000110D8F7809590958E0F9F1F0895FC0105
:100CE0006150704001900110D8F7809590958E0F5B
:100CF0009F1F0895CF93DF93EC012B8120FF33C01A
:100D000026FF0AC02F7B2B838E819F8101969F83B4
:100D10008E838A8190E029C022FF0FC0E881F9818B
:100D20008081992787FD9095009719F420622B8385
:100D30001AC03196F983E8830EC0EA85FB850995D0
:100D400097FF09C02B81019611F480E101C080E278
:100D5000822B8B8308C02E813F812F5F3F4F3F83C3
:100D60002E83992702C08FEF9FEFDF91CF910895D7
:100D7000FB01238120FF12C026FD10C08F3F3FEFF3
:100D8000930761F082832F7D20642383268137813E
:100D90002150310937832683992708958FEF9FEFDC
:100DA0000895FA01AA27283051F1203181F1E89401
:100DB0006F936E7F6E5F7F4F8F4F9F4FAF4FB1E04E
:100DC0003ED0B4E03CD0670F781F891F9A1FA11D49
:100DD000680F791F8A1F911DA11D6A0F711D811D4A
:100DE000911DA11D20D009F468943F912AE0269F0F
:100DF00011243019305D3193DEF6CF010895462F6E
:100E00004770405D4193B3E00FD0C9F7F6CF462F4E
:100E10004F70405D4A3318F0495D31FD40524193B7
:100E200002D0A9F7EACFB4E0A69597958795779574
:100E30006795BA95C9F700976105710508959B01FB
:100E4000AC010A2E06945795479537952795BA9584
:100E5000C9F7620F731F841F951FA01D089599275E
:100E6000882708952F923F924F925F926F927F92C0
:100E70008F929F92AF92BF92CF92DF92EF92FF92AA
:100E80000F931F93CF93DF93CDB7DEB7CA1BDB0B56
:100E90000FB6F894DEBF0FBECDBF09942A883988FB
:100EA00048885F846E847D848C849B84AA84B98402
:100EB000C884DF80EE80FD800C811B81AA81B9810E
:100EC000CE0FD11D0FB6F894DEBF0FBECDBFED0122
:060ED0000895F894FFCF25
:100ED60000000003000000005100630000002532FE
:100EE60075202D2D3E202532750A004469676974E8
:100EF600653A206E646973636F7320283120612020
:100F06003130292C6F726967656D20283020612089
:100F160032292C64657374696E6F28302061203223
:100F2600290A0025752C25752C2575000A41717531
:100F36006920766169206120736F6C7563616F3A11
:100F46000A0A00506172616D6574726F7320696E72
:0A0F560076616C69646F730A000095
:00000001FF
