:020000020000FC
:040000000C9400015B
:100200000FEF0DBF08E00EBF0E94140109E62CE3BA
:100210002AB930E03BB929B12078E9F30E942E01D8
:100220000E945A010C940E0110E01093C50000E1E9
:100230000093C40008E10093C10006E00093C200EF
:10024000F2E0E0EE0E94460108951F931091C00075
:1002500015FFFCCF0093C6001F9108951F931091C6
:10026000C00017FF04C01F910E94390108951F911B
:1002700008950091C600F3E0EEE20E9446010E945C
:100280002501F3E0ECE30E94460108950F930591E8
:10029000043221F00E9425010C9447010F9108952A
:1002A0000E942E01093471F0093661F0043489F09E
:1002B000043679F029B12078E9F729B12078E9F3FB
:1002C0000E9450013395432F440F440F4BB90C94B7
:1002D0000E013A95432F440F440F4BB90C940E0175
:1002E0003A3A5072657373204920666F7220696EC6
:1002F0006372656173696E672074686520636F75EA
:100300006E746572200A0D3A3A5072657373204418
:1003100020666F722064656372656173696E672021
:1003200074686520636F756E7465720A0D24596F69
:10033000752043686F73653A20240A0D200A0D2446
:00000001FF
