:020000020000FC
:040000000C9400015B
:100200000FEF0DBF08E00EBF0E94290100E300932D
:1002100001020FEF0093000200910002002B69F031
:10022000009101020E9436010E94480100910002E3
:100230000A95009300020C940C01009101020F3FFB
:1002400029F30395009301020FEF009300020C9431
:100250000C0110E01093C50000E10093C40008E118
:100260000093C10006E00093C20008951F9310910F
:10027000C00015FFFCCF0093C6001F9108951F9387
:100280001091C00017FFFCCF0091C6001F91089588
:100290000F931F93B2E0A2E002EB0D9305E20C93E3
:1002A000B2E0A2E00C9101500D930C9100400C9330
:0E02B000012B11F00C9450011F910F91089535
:00000001FF
