:020000020000FC
:040000000C9400015B
:040090000C940D01BE
:100200000FEF0DBF01E20EBF0E946F010E94770148
:100210000E94960178940C940B010091CE000093FB
:1002200000020E9484014430C1F0433079F0423032
:1002300051F0413029F0033509F018954395189590
:10024000502F43951895602F43951895702F705334
:100250009AE0799F702D4395189540E0802F805348
:10026000870F6B32C1F06D3241F11895022F009368
:100270008900012F009388001895022F00938B00AE
:10028000012F00938A001895022F00938D00012FF3
:1002900000938C0018952BE017EB0BE0809F100D5E
:1002A000211D00E2809F00E0110D201F5033F1F26C
:1002B000513319F3523341F318952BE017EB0BE050
:1002C000809F1019210900E2809F00E01119200B86
:1002D000503361F2513389F25233B1F2189500EE86
:1002E00004B940E050E060E070E080E0089510E084
:1002F0001093CD0007E60093CC0008E90093C900F5
:1003000006E00093CA0008951F931091C80015FFDE
:10031000FCCF0093CE001F9108951F931091C80049
:1003200017FFFCCF0091CE001F9108950CE90093B8
:1003300087000FE3009386000BE00093890007EB32
:10034000009388000BE000938B0007EB00938A007A
:100350000BE000938D0007EB00938C000AEA0093FA
:1003600080000AE10093810000E000936F0008958F
:00000001FF
